:100000000C9430000C944D000C944D000C944D0059
:100010000C940E060C944D000C944D000C944D0065
:100020000C944D000C942A050C944D000C9401077F
:100030000C944D000C944D000C944D000C944D000C
:100040000C944D000C944D000C944D000C944D00FC
:100050000C944D006364696E6F70737578585B0023
:1000600011241FBECFE5D4E0DEBFCDBF11E0A0E676
:10007000B0E0E4E3FEE102C005900D92A030B107CC
:10008000D9F722E0A0E0B1E001C01D92A933B20788
:10009000E1F70E94ED070C94180F0C9400000F93E9
:1000A0001F93CF93DF93CDB7DEB72C970FB6F8949D
:1000B000DEBF0FBECDBF9C878B878B859C8501964D
:1000C000FC018081882F90E0C0979C838B838B8577
:1000D0009C85FC018081882F90E08534910509F48E
:1000E00072C18634910544F48134910571F08334F2
:1000F000910509F4B7C070C38435910509F45FC256
:100100008535910509F4DEC267C38B859C8502960F
:10011000FC018081803309F44FC08B819C8161E3B5
:100120000E9416048BE390E02BE330E0F90120817C
:10013000622F2B813C81A90121E030E002C0220F17
:10014000331F4A95E2F7262BFC0120838B859C8583
:100150000196FC018081882F90E0292F2F938F93A7
:1001600082E690E0892F8F9382E690E08F9387E07C
:1001700091E0892F8F9387E091E08F930E940C0983
:100180000F900F900F900F900F900F908B819C818C
:100190009C0181E090E002C0880F991F2A95E2F748
:1001A0009C018091AD019091AE01822B932B909395
:1001B000AE018093AD0151C08B819C8160E30E94B0
:1001C00016048BE390E02BE330E0F9012081622FED
:1001D0002B813C81A90121E030E002C0220F331FB6
:1001E0004A95E2F720952623FC0120838B859C8588
:1001F0000196FC018081882F90E0292F2F938F9307
:100200008EE690E0892F8F938EE690E08F9387E0C3
:1002100091E0892F8F9387E091E08F930E940C09E2
:100220000F900F900F900F900F900F908B819C81EB
:100230009C0181E090E002C0880F991F2A95E2F7A7
:10024000809590959C018091AD019091AE018223A3
:1002500093239093AE018093AD0187E091E00E94DB
:100260004F00D9C28B859C850296FC01808180332A
:1002700009F451C08B819C81089661E30E941604A9
:1002800085E390E025E330E0F9012081622F2B81A6
:100290003C81A90121E030E002C0220F331F4A95C2
:1002A000E2F7262BFC0120838B859C850196FC01BF
:1002B0008081882F90E0292F2F938F938AE790E0F9
:1002C000892F8F938AE790E08F9387E091E0892FC1
:1002D0008F9387E091E08F930E940C090F900F900D
:1002E0000F900F900F900F908B819C8108969C012E
:1002F00081E090E002C0880F991F2A95E2F79C01E7
:100300008091AD019091AE01822B932B9093AE0121
:100310008093AD0153C08B819C81089660E30E945D
:10032000160485E390E025E330E0F9012081622F97
:100330002B813C81A90121E030E002C0220F331F54
:100340004A95E2F720952623FC0120838B859C8526
:100350000196FC018081882F90E0292F2F938F93A5
:1003600086E890E0892F8F9386E890E08F9387E06E
:1003700091E0892F8F9387E091E08F930E940C0981
:100380000F900F900F900F900F900F908B819C818A
:1003900008969C0181E090E002C0880F991F2A9581
:1003A000E2F7809590959C018091AD019091AE010E
:1003B000822793279093AE018093AD0187E091E06F
:1003C0000E944F0028C28B859C850296FC0180818B
:1003D0008936C1F41A8219820FC08B859C850196DB
:1003E000FC01208189819A81622F0E9416048981F3
:1003F0009A8101969A83898389819A8180319105B6
:1004000060F309C28B859C850296FC01808186364B
:1004100029F58B859C850196FC018081813629F424
:1004200080E092E09C838B8304C080E190E09C8319
:100430008B831A8219820AC089819A816FEF0E9488
:10044000160489819A8101969A8389838B819C8184
:1004500029813A812817390778F3DDC18B859C857E
:100460000296FC018081823779F40BE310E08B85E2
:100470009C850196FC018081882F90E00E944E04AB
:100480008095F80180839AC08B859C850196FC013C
:100490008081823509F082C08B859C8502969E0101
:1004A0002D5F3F4F432F4F932F9322E930E0232FAF
:1004B0002F9322E930E02F93292F2F938F930E94BF
:1004C0002E090F900F900F900F900F900F9081308A
:1004D000910561F58B819C810E944E04282F30E0AC
:1004E0008B819C81432F4F932F93292F2F938F9391
:1004F00085E990E0892F8F9385E990E08F9387E0DD
:1005000091E0892F8F9387E091E08F930E940C09EF
:100510002DB73EB7285F3F4F0FB6F894DEBF0FBE32
:10052000CDBF87E091E00E94B80848C01A821982C6
:100530002EC089819A810E944E04882F90E0292F35
:100540002F938F938A818F9389818F9385E990E090
:10055000892F8F9385E990E08F9387E091E0892F31
:100560008F9387E091E08F930E940C098DB79EB71F
:1005700008960FB6F894DEBF0FBECDBF87E091E0BE
:100580000E94B80889819A8101969A83898389811A
:100590009A818115E2E09E0760F23DC18B859C85C2
:1005A0000296FC0120818B859C850196FC0180814F
:1005B000882F90E0622F0E9416042DC12CC18C85DB
:1005C0008F938B858F93CE010596292F2F938F9331
:1005D0008CE990E0892F8F938CE990E08F938C8544
:1005E0008F938B858F930E942E092DB73EB7285F7E
:1005F0003F4F0FB6F894DEBF0FBECDBF82309105DE
:1006000009F05BC08D819E81892F9927482F8091A9
:100610006B0190916C019C012150310930936C0168
:1006200020936B01642F0E9416048D819E81482FB8
:1006300080916B0190916C019C01215031093093A4
:100640006C0120936B01642F0E9416041A82198298
:100650001BC02B853C8589819A81820F931FFC01E9
:10066000408180916B0190916C019C012150310976
:1006700030936C0120936B01642F0E9416048981D2
:100680009A8101969A8389838B859C850E94D608DE
:100690009C0189819A8182179307D8F280916B011E
:1006A00090916C019C012150310930936C01209391
:1006B0006B016AE00E941604AEC082EA90E00E94DC
:1006C000B808A9C0CE010796292F2F938F93CE018A
:1006D0000596292F2F938F93CE010A96292F2F93BA
:1006E0008F93CE010996292F2F938F938FEA90E055
:1006F000892F8F938FEA90E08F938C858F938B85D2
:100700008F930E942E092DB73EB7245F3F4F0FB63F
:10071000F894DEBF0FBECDBF8430910509F05BC0F9
:100720008985813429F480E190E09C838B830DC01E
:100730008985833429F480E390E09C838B8305C012
:100740008AEB90E00E94DF0866C08A85882F90E0DF
:10075000C0978A309105ACF48A85882F90E0C097C5
:1007600099237CF08A85882F90E0C097880F991F85
:10077000880F991F9C018B819C81820F931F9C8302
:100780008B838D819E81892F9927282F8B819C8136
:10079000622F0E9416048D819E81282F8B819C815F
:1007A0000196622F0E9416048F819885892F9927C0
:1007B000282F8B819C810296622F0E9416048F81C4
:1007C0009885282F8B819C810396622F0E941604A6
:1007D0000E94790420C01FC08C858F938B858F93D6
:1007E00085EC90E0892F8F9385EC90E08F9387E0E4
:1007F00091E0892F8F9387E091E08F930E940C09FD
:100800000F900F900F900F900F900F9087E091E056
:100810000E94B80800002C960FB6F894DEBF0FBEF9
:10082000CDBFDF91CF911F910F910895CF93DF93AB
:1008300000D01F92CDB7DEB79A8389836B83000007
:100840008CE390E0FC018081882F90E082709927F2
:100850000097B1F78EE390E029813A81FC01318362
:1008600020838DE390E02B81FC0120838CE390E0DA
:100870002CE330E0F90120812460FC0120838CE32B
:1008800090E02CE330E0F90120812260FC0120831C
:100890000F900F900F90DF91CF910895CF93DF933A
:1008A00000D0CDB7DEB79A83898300008CE390E057
:1008B000FC018081882F90E0827099270097B1F722
:1008C0008EE390E029813A81FC01318320838CE31F
:1008D00090E02CE330E0F90120812160FC012083CD
:1008E0008DE390E0FC0180810F900F90DF91CF911C
:1008F0000895EF92FF920F931F93CF93DF931F9270
:10090000CDB7DEB780E1898354C08981882F90E01C
:10091000409799230CF4039695958795959587951F
:100920008C018981882F90E00E944E04882F90E0EE
:10093000F82EEE248981882F90E001960E944E04C3
:10094000882F90E09701282B392BC801880F991F19
:1009500083599E4FFC01318320838981882F90E049
:10096000409799230CF403969595879595958795CF
:100970008C018981882F90E002960E944E04882F76
:1009800090E0F82EEE248981882F90E003960E9453
:100990004E04882F90E09701282B392BC801880F2F
:1009A000991F83579E4FFC013183208389818C5F7F
:1009B00089838981803508F4A8CF19823FC0898155
:1009C000282F30E081E090E002C0880F991F2A951F
:1009D000E2F79C018091AD019091AE0182239323B7
:1009E0000097A9F08981882F90E02981222F30E09B
:1009F000220F331F23593E4FF90120813181880F87
:100A0000991F81559E4FFC013183208314C0898139
:100A1000882F90E02981222F30E0220F331F2357A7
:100A20003E4FF90120813181880F991F81559E4FDA
:100A3000FC013183208389818F5F898389818031A3
:100A400008F4BDCF0F90DF91CF911F910F91FF90D0
:100A5000EF9008951F920F9200905F000F92112463
:100A60000F931F932F933F934F935F936F937F93B6
:100A70008F939F93AF93BF93EF93FF93CF93DF93A6
:100A8000CDB7DEB7C856D109DEBFCDBF809100011A
:100A90009091010101969093010180930001809152
:100AA0000001909101018E33910508F49AC01092D3
:100AB00001011092000180910201909103010196C1
:100AC00090930301809302018091600090916100F6
:100AD0000E944E04882F90E0182F0027809160001C
:100AE0009091610001970E944E04882F90E0802B26
:100AF000912B9C838B838B819C818F3F2FEF92075F
:100B000009F46FC020910201309103018B819C8117
:100B10002817390708F465C0809160009091610042
:100B2000029790936100809360001A8219828091ED
:100B30006000909161000E944E04482F9E012B5F3F
:100B40003F4F89819A81820F931FFC0140839E0150
:100B50002B5F3F4F89819A81820F931FFC01808117
:100B60008A3059F09E012B5F3F4F89819A81820F15
:100B7000931FFC018081833129F589819A81019637
:100B80009E012B5F3F4F820F931FFC0110828091CB
:100B900060009091610001979093610080936000E4
:100BA00000008BED90E00E94B808CE0105960E94EF
:100BB000B808CE0105960E944F00109203011092D2
:100BC00002010FC089819A8101969A83898380915D
:100BD00060009091610001979093610080936000A4
:100BE000A6CFC859DF4F0FB6F894DEBF0FBECDBFFA
:100BF000DF91CF91FF91EF91BF91AF919F918F9135
:100C00007F916F915F914F913F912F911F910F9124
:100C10000F9000925F000F901F9018951F920F92F7
:100C200000905F000F9211242F933F934F935F9397
:100C30006F938F939F93EF93FF93CF93DF9300D0A6
:100C4000CDB7DEB780910401909105010196909394
:100C500005018093040180910401909105018E3378
:100C6000910508F4BBC01092050110920401809117
:100C700006018F5F80930601809106018C3308F492
:100C8000ADC0109206011A821982A2C089819A8190
:100C9000880F991F81559E4FFC018081918100979B
:100CA000B1F089819A81880F991F81559E4FFC016F
:100CB000808191819C012150310989819A81880F1D
:100CC000991F81559E4FFC01318320837CC089810F
:100CD0009A8188309105A8F48BE390E02BE330E013
:100CE000F9012081622F49815A8121E030E0042EF0
:100CF00002C0220F331F0A94E2F72627FC0120834B
:100D000017C085E390E025E330E0F9012081622FF0
:100D100029813A8128503109A90121E030E0042ECF
:100D200002C0220F331F0A94E2F72627FC0120831A
:100D300029813A8181E090E002C0880F991F2A95AD
:100D4000E2F79C018091AD019091AE018223932343
:100D5000009799F089819A81880F991F83579E4F38
:100D6000FC012081318189819A81880F991F8155E9
:100D70009E4FFC013183208312C089819A81880FA4
:100D8000991F83599E4FFC012081318189819A816D
:100D9000880F991F81559E4FFC0131832083298143
:100DA0003A8181E090E002C0880F991F2A95E2F70E
:100DB0009C018091AD019091AE0182279327909381
:100DC000AE018093AD0189819A8101969A838983CE
:100DD00089819A818031910508F458CF0F900F9046
:100DE000DF91CF91FF91EF919F918F916F915F91E3
:100DF0004F913F912F910F9000925F000F901F90A5
:100E000018951F920F9200905F000F9211240F937C
:100E10001F932F933F934F935F936F937F938F9382
:100E20009F93AF93BF93EF93FF93CF93DF93CDB790
:100E3000DEB7C556D109DEBFCDBF198232C0898168
:100E4000082F10E00E94A608282FCE010296800FDE
:100E5000911FFC0120838981882F90E09E012E5FE5
:100E60003F4F820F931FFC018081833161F08981A4
:100E7000882F90E09E012E5F3F4F820F931FFC0151
:100E800080818A3059F48981882F90E09E012E5FFD
:100E90003F4F820F931FFC01108206C089818F5F34
:100EA00089838981843658F28A81882349F181EFC8
:100EB00090E00E94B80819821CC08981882F90E0B8
:100EC0009E012E5F3F4F820F931FFC0180810E9485
:100ED0008C088981882F90E09E012E5F3F4F820F02
:100EE000931FFC018081882309F406C089818F5FEC
:100EF00089838981843608F38DEF90E00E94B808D9
:100F0000CE0102960E944F00CB59DF4F0FB6F894E6
:100F1000DEBF0FBECDBFDF91CF91FF91EF91BF91AB
:100F2000AF919F918F917F916F915F914F913F9181
:100F30002F911F910F910F9000925F000F901F90C3
:100F40001895CF93DF93CDB7DEB780E490E0FC0136
:100F5000108289E290E027E6FC0120838AE290E09B
:100F600028E9FC01208380E490E026E8FC0120834E
:100F7000DF91CF910895CF93DF93CDB7DEB783E5AF
:100F800090E025E0FC01208382E590E0FC011082E6
:100F900089E590E029E530E0F90120812160FC013C
:100FA0002083DF91CF910895CF93DF93CDB7DEB744
:100FB00085E490E027E0FC01208384E490E0FC01DC
:100FC000108289E590E029E530E0F9012081206474
:100FD000FC012083DF91CF910895FF920F931F931F
:100FE000CF93DF931F92CDB7DEB78AE390E02FEF68
:100FF000FC01208384E390E02FEFFC0120838BE34E
:1010000090E0FC01108285E390E0FC0110821982DF
:1010100022C08BE390E02BE330E0F901208126959C
:10102000FC0120830BE310E08BE390E0FC01808166
:10103000F82E8981882F90E00E944E04882F90E03E
:101040009695982F8827979587958F29F801808303
:1010500089818F5F898389818830D8F288E089838C
:1010600022C085E390E025E330E0F9012081269558
:10107000FC01208305E310E085E390E0FC01808122
:10108000F82E8981882F90E00E944E04882F90E0EE
:101090009695982F8827979587958F29F8018083B3
:1010A00089818F5F898389818031D8F28FEF91E0C8
:1010B00090936C0180936B0109C080916B019091BA
:1010C0006C01019790936C0180936B0180916B018F
:1010D00090916C010E944E048F3F79F785E390E078
:1010E000FC018081882F90E0382F22278BE390E04D
:1010F000FC018081882F90E0822B932B9093AE018E
:101100008093AD010E94A1070E9479040E94BB0751
:101110000E94D4077894FFCFCF93DF931F92CDB76F
:10112000DEB7898300008BE290E0FC018081882F8C
:1011300090E0807299270097B1F38CE290E02981CA
:10114000FC0120830F90DF91CF910895CF93DF931F
:10115000CDB7DEB700008BE290E0FC0180818823F0
:10116000D4F78CE290E0FC018081DF91CF9108956B
:10117000CF93DF9300D0CDB7DEB79A8389830BC0BE
:1011800089819A81FC0180810E948C0889819A81E1
:1011900001969A83898389819A81FC0180818823C1
:1011A00079F70F900F90DF91CF910895FC01019096
:1011B0000020E9F7809590958E0F9F1F08950F935B
:1011C0001F93CF93DF93E0913502F0913602238194
:1011D00021FF1BC0EC0100E010E089916091350215
:1011E00070913602DB011896ED91FC9119978823D6
:1011F00031F00995892B89F30FEF1FEFEECF8AE0CD
:101200000995892B11F4C80102C08FEF9FEFDF9180
:10121000CF911F910F910895AEE0B0E0E2E1F9E0C7
:101220000C94EF0E0D891E8986E08C831A83098346
:101230008FEF9FE79E838D83AE01475E5F4F6F897F
:10124000788DCE0101960E944709EF81F885E00F65
:10125000F11F10822E96E4E00C940B0FAEE0B0E08C
:10126000E4E3F9E00C94F10E85E08C838B899C8992
:101270009A838983AE01495E5F4F6D897E89CE0175
:1012800001960E94970C2E96E2E00C940D0FACE0B4
:10129000B0E0EDE4F9E00C94E10E7C016B018A0111
:1012A000FC0117821682838181FFBDC1CE010196A8
:1012B0004C01F7019381F60193FD859193FF819194
:1012C0006F01882309F4ABC1853239F493FD859110
:1012D00093FF81916F01853229F4B70190E00E945C
:1012E000350EE7CF512C312C20E02032A0F48B3288
:1012F00069F030F4803259F0833269F420612CC0F7
:101300008D3239F0803339F4216026C022602460A8
:1013100023C0286021C027FD27C030ED380F3A30A8
:1013200078F426FF06C0FAE05F9E300D1124532E9C
:1013300013C08AE0389E300D1124332E20620CC079
:101340008E3221F426FD6BC1206406C08C3611F468
:10135000206802C0883641F4F60193FD859193FF21
:1013600081916F018111C1CF982F9F7D955493304A
:1013700028F40C5F1F4FFFE3F9830DC0833631F073
:10138000833771F0833509F05BC022C0F80180819A
:1013900089830E5F1F4F44244394512C540115C080
:1013A0003801F2E06F0E711CF801A080B18026FFB9
:1013B00003C0652D70E002C06FEF7FEFC5012C8781
:1013C0000E94EC0D2C0183012C852F77222E17C053
:1013D0003801F2E06F0E711CF801A080B18026FF89
:1013E00003C0652D70E002C06FEF7FEFC5012C8751
:1013F0000E94E10D2C012C852068222E830123FC04
:101400001BC0832D90E048165906B0F4B70180E266
:1014100090E00E94350E3A94F4CFF50127FC8591B7
:1014200027FE81915F01B70190E00E94350E3110D7
:101430003A94F1E04F1A51084114510471F7E5C094
:10144000843611F0893639F5F80127FF07C060812D
:101450007181828193810C5F1F4F08C0608171810F
:10146000882777FD8095982F0E5F1F4F2F76B22E1D
:1014700097FF09C090958095709561957F4F8F4F2C
:101480009F4F2068B22E2AE030E0A4010E94800E17
:10149000A82EA81844C0853729F42F7EB22E2AE042
:1014A00030E025C0F22FF97FBF2E8F36C1F018F43F
:1014B000883579F0B4C0803719F0883721F0AFC093
:1014C0002F2F2061B22EB4FE0DC08B2D8460B82E5C
:1014D00009C024FF0AC09F2F9660B92E06C028E0DD
:1014E00030E005C020E130E002C020E132E0F80148
:1014F000B7FE07C060817181828193810C5F1F4FAD
:1015000006C06081718180E090E00E5F1F4FA401F2
:101510000E94800EA82EA818FB2DFF77BF2EB6FEC6
:101520000BC02B2D2E7FA51450F4B4FE0AC0B2FCC4
:1015300008C02B2D2E7E05C07A2C2B2D03C07A2CB3
:1015400001C0752C24FF0DC0FE01EA0DF11D808144
:10155000803311F4297E09C022FF06C0739473946E
:1015600004C0822F867809F0739423FD13C020FFF6
:1015700006C05A2C731418F4530C5718732C731498
:1015800068F4B70180E290E02C870E94350E7394D6
:101590002C85F5CF731410F4371801C0312C24FFBB
:1015A00012C0B70180E390E02C870E94350E2C8595
:1015B00022FF17C021FF03C088E590E002C088E742
:1015C00090E0B7010CC0822F867859F021FD02C04F
:1015D00080E201C08BE227FD8DE2B70190E00E941E
:1015E000350EA51438F4B70180E390E00E94350E63
:1015F0005A94F7CFAA94F401EA0DF11D8081B70146
:1016000090E00E94350EA110F5CF332009F451CEA1
:10161000B70180E290E00E94350E3A94F6CFF701D0
:101620008681978102C08FEF9FEF2C96E2E10C94A8
:10163000FD0E20FD09C0FC0123FD05C022FF02C0F4
:101640007383628351834083089544FD10C046FD37
:1016500010C0DB01FC01AA0FBB1FEE1FFF1F10947F
:10166000D1F76A0F7B1F8E1F9F1F31E003C033E04D
:1016700001C034E0660F771F881F991F3150D1F7E2
:10168000620F711D811D911D08950F931F93CF93BC
:10169000DF938C01C8010E94F70DEC0197FD08C093
:1016A0000E94CE0D892BB1F7B801CE010E94670EC2
:1016B000CE01DF91CF911F910F9108958F929F924C
:1016C000AF92CF92DF92EF92FF920F931F93CF933F
:1016D000DF93EC01A62E4A01022F0E94F70DAC0108
:1016E00055274B32510521F04D32510551F4006818
:1016F000AA9411F480E067C0CE010E94F70D97FD17
:10170000F9CF102F1D7F302F307301F58033F1F4A6
:10171000FF24FA94FA0C09F442C0CE010E94F70D9E
:1017200097FD3DC0382F3F7D383551F41264AA949F
:10173000AA94A9F1CE010E94F70D97FF07C02FC010
:1017400006FF02C0126001C01261AF2CC12CD12C67
:10175000760120ED280F283080F014FF04C0BE0170
:101760000E94670E19C02A3040F016FFF8CF2F7D77
:101770003FEE320F363098F72750412FC701B601A0
:101780000E94250B6B017C011260AA9459F0CE01D6
:101790000E94F70D97FFDDCF11FD04C0ABCFC12C28
:1017A000D12C760117FF08C0F094E094D094C09437
:1017B000C11CD11CE11CF11C212FB701A601C401E1
:1017C0000E94190B81E0DF91CF911F910F91FF9043
:1017D000EF90DF90CF90AF909F908F900895A1E20F
:1017E000B0E0E5EFFBE00C94E60E5C017A018E01BF
:1017F0000F5F1F4F680180E2D8011D928A95E9F7BB
:10180000F501738040E050E0812CB0E0912C81E044
:1018100090E0F90173FCA59173FEA1918F017A2FDD
:101820009F01A11103C080E090E07DC0AE3519F4A6
:101830004115510559F1E92DF0E0E417F5073CF4A5
:10184000AD3569F1AD3219F4BB2319F103C0B11103
:1018500001C08A2EE72FE695E695E69586010E0FE4
:10186000111DF801A72FA7708C0102C0000F111FD6
:10187000AA95E2F7D801B081BA2BB083781559F058
:10188000781510F47F5FE6CF7150E4CF99249394DC
:1018900003C0B1E001C0B0E04F5F5F4FBACFBB23E0
:1018A00019F08E8180628E83911003C099249394E5
:1018B00015C0F601CE018196208120952193E8176D
:1018C000F907D1F7F3CFE114F10429F0D7018C9394
:1018D000F70131967F01615001F1912CC50169A397
:1018E0000E94F70D69A197FD16C0282F2695269511
:1018F0002695F601E20FF11D208130E0AC01477022
:10190000552702C0359527954A95E2F720FDDBCF94
:10191000B5010E94670E911086CFE114F10411F019
:10192000D7011C92C801A196EDE00C94020F4F92D2
:101930005F927F928F929F92AF92BF92CF92DF92EF
:10194000EF92FF920F931F93CF93DF931F92CDB728
:10195000DEB78C012B017A01FC0117821682A12CC3
:10196000F801D380F201D3FC8591D3FE8191382F09
:101970002F01882309F4FCC090E039830E94CE0D2A
:101980003981892B21F0C8010E94450BE9CF3532FE
:1019900041F4F201D3FC3591D3FE31912F01353260
:1019A00069F4C80139830E94F70D398197FDDEC0C3
:1019B0003817B1F2B8010E94670EDAC03A3241F42A
:1019C000D3FC3591D3FE31912F01BB24B39401C0D8
:1019D000B12C712C20ED230F2A3090F4FB2DF260F6
:1019E000BF2E672D70E080E090E040E20E94250B62
:1019F000762EF201D3FC3591D3FE31912F01EACF3F
:101A0000B1FE03C0711003C0B3C077247A94383696
:101A100019F03C3661F014C0F201D3FC3591D3FECD
:101A200031912F01383661F4FB2DF860BF2E8B2DDC
:101A30008460B82EF201D3FC3591D3FE31912F0191
:101A4000332309F495C0632F70E084E590E0398377
:101A50000E94D60D3981892B09F48AC0B0FC07C0D9
:101A6000F701C080D180C70102967C0102C0C12C61
:101A7000D12C3E3651F4F8014681578160E070E088
:101A80002B2DC6010E94190B6BCF3336A1F4B1FC8C
:101A900002C077247394C8010E94F70D97FD66C0B9
:101AA000C114D10429F0F6018083C60101966C01AE
:101AB0007A9489F757C03B3559F49201A601672DF6
:101AC000C8010E94EF0B2C01009709F04BC045C0E4
:101AD000C80139830E94450B398197FD47C03F36C5
:101AE00069F128F4343631F1393679F12BC03337C6
:101AF00069F03537F9F026C0C114D10429F0F60198
:101B00008082C60101966C017A9471F0C8010E942E
:101B1000F70D4C0197FD08C00E94CE0D892B61F393
:101B2000B801C4010E94670EC114D104D9F0F601B6
:101B3000108218C0FB2DF062BF2E07C08B2D806174
:101B4000B82E03C09B2D9064B92E2B2DA601672DB6
:101B5000C8010E945E0B811105C0F801838180736A
:101B600029F406C0B0FCFCCEA394FACEAA2019F04A
:101B70008A2D90E002C08FEF9FEF0F90DF91CF9101
:101B80001F910F91FF90EF90DF90CF90BF90AF909B
:101B90009F908F907F905F904F90089591110EC10C
:101BA000803219F089508550D0F70895FC010590D6
:101BB000061621F00020D9F7C00108953197CF0112
:101BC0000895FC010590615070400110D8F7809590
:101BD00090958E0F9F1F0895FC01615070400190F9
:101BE0000110D8F7809590958E0F9F1F0895CF9381
:101BF000DF93EC012B8120FF33C026FF0AC02F7B2F
:101C00002B838E819F8101969F838E838A8190E0B2
:101C100029C022FF0FC0E881F9818081992787FDC3
:101C20009095009719F420622B831AC03196F9839E
:101C3000E8830EC0EA85FB85099597FF09C02B81D3
:101C4000019611F480E101C080E2822B8B8308C0F1
:101C50002E813F812F5F3F4F3F832E83992702C004
:101C60008FEF9FEFDF91CF9108950F931F93CF9345
:101C7000DF93182F092FEB018B8181FD03C08FEFBC
:101C80009FEF20C082FF10C04E815F812C813D817B
:101C9000421753077CF4E881F9819F012F5F3F4F82
:101CA00039832883108306C0E885F985812F09953B
:101CB000892B29F72E813F812F5F3F4F3F832E8352
:101CC000812F902FDF91CF911F910F910895FB01EC
:101CD000238120FF12C026FD10C08F3F3FEF9307E6
:101CE00061F082832F7D20642383268137812150F8
:101CF000310937832683992708958FEF9FEF089541
:101D0000FA01AA27283051F1203181F1E8946F932C
:101D10006E7F6E5F7F4F8F4F9F4FAF4FB1E03ED0D2
:101D2000B4E03CD0670F781F891F9A1FA11D680F70
:101D3000791F8A1F911DA11D6A0F711D811D911DA3
:101D4000A11D20D009F468943F912AE0269F112418
:101D50003019305D3193DEF6CF010895462F47707C
:101D6000405D4193B3E00FD0C9F7F6CF462F4F70D7
:101D7000405D4A3318F0495D31FD4052419302D035
:101D8000A9F7EACFB4E0A6959795879577956795DB
:101D9000BA95C9F700976105710508959B01AC01DB
:101DA0000A2E06945795479537952795BA95C9F702
:101DB000620F731F841F951FA01D08959927882700
:101DC00008952F923F924F925F926F927F928F92DF
:101DD0009F92AF92BF92CF92DF92EF92FF920F93BA
:101DE0001F93CF93DF93CDB7DEB7CA1BDB0B0FB6C4
:101DF000F894DEBF0FBECDBF09942A883988488881
:101E00005F846E847D848C849B84AA84B984C88416
:101E1000DF80EE80FD800C811B81AA81B981CE0F0D
:101E2000D11D0FB6F894DEBF0FBECDBFED010895F2
:041E3000F894FFCF54
:101E3400FF015541256336353533352F3000554183
:101E44002563302F36353533350055432563363514
:101E54003533352F300055432563302F3635353330
:101E6400350025640025642E25780A005425642550
:101E7400730057726F6E6720636F6465210A0055A3
:101E84002563256325642F25640057726F6E6720D0
:101E9400706F727400556E7265636F676E697365F7
:101EA4006420636F64653A25730A004175746F207A
:101EB40072756E6E696E6720636F6D6D616E643AE4
:101EC400000A52656365697665643A0A000A00008F
:00000001FF
