:100000000C9445000C9462000C9462000C94620005
:100010000C9452040C9462000C9462000C946200E4
:100020000C9462000C946C030C9462000C94E90430
:100030000C9462000C9462000C9462000C946200B8
:100040000C9462000C9462000C9462000C946200A8
:100050000C9462008C00D302F400D3025801A70272
:10006000D302D302D302D302D302D302D302D302E8
:10007000D302D302D3029902BA02E0013F026364C1
:10008000696E6F70737578585B0011241FBECFE5E1
:10009000D4E0DEBFCDBF11E0A0E6B0E0E0EAF8E1D9
:1000A00002C005900D92AC34B107D9F722E0ACE460
:1000B000B1E001C01D92A532B207E1F70E946605CA
:1000C0000C944E0C0C940000CF92DF92EF92FF92B2
:1000D0000F931F93CF93DF93CDB7DEB728970FB65B
:1000E000F894DEBF0FBECDBF8C01DC011196FC90F1
:1000F00011972F2D30E0C901C0979E838D834C91BD
:1001000050E0415451094531510508F04CC2465D5B
:100110005F4FFA010C94F405D80112962C9120330C
:1001200029F161E30E94F7022BB3EE24E394F12C52
:10013000C7010D8002C0880F991F0A94E2F7282B8F
:100140002BBBF80181811F928F9380E790E09F93F2
:100150008F9387E591E09F938F930E9442060D80D5
:1001600002C0EE0CFF1C0A94E2F76AC060E30E9432
:10017000F7022BB3EE24E394F12CC7010D8002C0EB
:10018000880F991F0A94E2F7809582238BBBD801D0
:1001900011968C911F928F938CE790E09F938F9391
:1001A00087E591E09F938F930E94420697010D800F
:1001B00002C0220F331F0A94E2F7209530958091F8
:1001C000FD019091FE01822393239093FE01809381
:1001D000FD010F900F900F900F900F900F9087E5FB
:1001E00091E00E946400F4C1F80122810896203356
:1001F00071F161E30E94F70225B3EE24E394F12C40
:10020000C7010D8002C0880F991F0A94E2F7282BBE
:1002100025BBD80111968C911F928F9388E890E0AE
:100220009F938F9387E591E09F938F930E9442065F
:100230008D819E81089602C0EE0CFF1C8A95E2F724
:100240008091FD019091FE018E299F29BECF60E330
:100250000E94F70225B3EE24E394F12CC7010D8030
:1002600002C0880F991F0A94E2F78095822385BB0C
:10027000F80181811F928F9384E990E09F938F937F
:1002800087E591E09F938F930E9442068D819E8126
:100290000896970102C0220F331F8A95E2F7209536
:1002A00030958091FD019091FE01822793278DCF9B
:1002B000D80112966C91693681F4E12CF12CA89545
:1002C000F8016181C7010E94F702FFEFEF1AFF0AF0
:1002D00020E1E216F10499F77BC16636D1F431E6EC
:1002E000F31203C080E092E002C080E190E09E83C0
:1002F0008D8300E010E08D819E810817190708F0BA
:1003000067C1A8956FEFC8010E94F7020F5F1F4FEA
:10031000F2CF623731F4C9010E94FF0280958BBB96
:1003200057C182E5F8124AC0CE0105969F938F937C
:1003300081EC90E09F938F930E5F1F4F1F930F935D
:100340000E9464060F900F900F900F900F900F90E7
:10035000019769F48D819E810E94FF021F928F9305
:100360008E818F938D818F9380EA90E0F8C000E0BA
:1003700010E030EAC32E30E0D32E47E5E42E41E012
:10038000F42EC8010E94FF021F928F931F930F93B8
:10039000DF92CF92FF92EF920E944206FF92EF927D
:1003A0000E94FA050F5F1F4F0FB6F894DEBF0FBE15
:1003B000CDBF0115F2E01F0721F70AC1C90159C0DD
:1003C0001F930F93CE0103969F938F9387EA90E03C
:1003D0009F938F931F930F930E9464060FB6F89418
:1003E000DEBF0FBECDBF029709F046C06C81809181
:1003F000BB019091BC019C01215031093093BC019B
:100400002093BB010E94F7026B818091BB01909108
:10041000BC019C01215031093093BC012093BB01E8
:100420000E94F7027801F80101900020E9F7319766
:10043000E01BF10B8091BB019091BC019701201B47
:10044000310B2E173F0768F4D7016D917D019C0198
:10045000215031093093BC012093BB010E94F70267
:10046000E2CF9C01215031093093BC012093BB01A4
:100470006AE00E94F702ACC08DEA90E03DC0CE0178
:1004800001969F938F9302969F938F9304969F93C9
:100490008F9301969F938F9389EB90E09F938F9317
:1004A0001F930F930E9464060FB6F894DEBF0FBE31
:1004B000CDBF049709F08CC08885813419F480E1A0
:1004C00090E004C08334B1F480E390E09E838D8398
:1004D0008F8190ED980F9A3090F490E0C097880F3C
:1004E000991F880F991F2D813E81280F391F3E8348
:1004F0002D8305C084EC90E00E94150669C06C81D4
:100500008D819E810E94F7028D819E816B81019673
:100510000E94F7026A818D819E8102960E94F702F5
:100520008D819E81698103960E94F7020E940603D5
:100530004FC08FEC90E00E94150628E088E190E023
:100540000FB6F894A89581BD0FBE21BDFFCF1F92B5
:1005500084EF8F9384E28F931F9289ED90E09F93B5
:100560008F9307E511E01F930F930E9442061F939C
:100570000F9327C0809156018F93809155018F93DF
:10058000809154018F93809153018F9388EE90E076
:100590009F938F930E94FA050F900F900F900F90EA
:1005A0000F900F9015C01F930F9383EF90E09F93D0
:1005B0008F9307E511E01F930F930E9442061F934C
:1005C0000F930E94FA050FB6F894DEBF0FBECDBFA1
:1005D00028960FB6F894DEBF0FBECDBFDF91CF9146
:1005E0001F910F91FF90EF90DF90CF900895E199C8
:1005F000FECF9FBB8EBB6DBBE29AE19A0895E19955
:10060000FECF9FBB8EBBE09A8DB30895FF920F93F0
:100610001F93CF93DF93C0E0D0E08E01159507952F
:1006200015950795CE0140960E94FF02F82ECE0147
:1006300041960E94FF02000F111FF801E354FE4F84
:100640002F2D30E0322F2227282B31832083CE011B
:1006500042960E94FF02F82ECE0143960E94FF02AE
:10066000F801E352FE4F2F2D30E0322F2227282BA6
:10067000318320832496C034D10579F64091FD0161
:100680005091FE01CDEBD1E0EFEFF1E0ADEDB1E047
:1006900080E090E061E070E09B01082E02C0220F34
:1006A000331F0A94E2F724233523232B19F02881E2
:1006B000398103C02D913C9111973183208301969C
:1006C0002296329612968031910531F7DF91CF91C3
:1006D0001F910F91FF9008951F920F920FB60F92E6
:1006E0001124CF92DF92EF92FF920F931F932F93DB
:1006F0003F934F935F936F937F938F939F93AF93AA
:10070000BF93EF93FF93CF93DF93CDB7DEB7C4567C
:10071000D109DEBFCDBF8091510190915201019668
:100720009093520180935101CE9708F49BC0809121
:10073000530190915401A0915501B0915601019639
:10074000A11DB11D8093530190935401A0935501B5
:10075000B0935601109252011092510180914F01B5
:100760009091500101969093500180934F01809198
:100770006000909161000E94FF02182F809160003C
:100780009091610001970E94FF02212F30E0322FEB
:100790002227282B2F3F8FEF380709F463C0809161
:1007A0004F01909150018217930708F45BC080912C
:1007B00060009091610002979093610080936000C7
:1007C000FE0131967F018F016701C01AD10A809125
:1007D0006000909161000E94FF02F70181937F0108
:1007E00020916000309161008A3099F5FE01EC0D96
:1007F000FD1D128221503109309361002093600069
:10080000809156018F93809155018F93809154016F
:100810008F93809153018F9389E091E09F938F9301
:100820000E94FA0583E191E09F938F930E94FA055D
:100830001F930F930E94FA05C8010E946400109252
:10084000500110924F010FB6F894DEBF0FBECDBF1E
:1008500009C0833159F2215031093093610020934E
:100860006000B2CFCC59DF4F0FB6F894DEBF0FBE99
:10087000CDBFDF91CF91FF91EF91BF91AF919F914C
:100880008F917F916F915F914F913F912F911F9128
:100890000F91FF90EF90DF90CF900F900FBE0F90D1
:1008A0001F9018951F920F920FB60F9211240F935D
:1008B0001F932F933F934F935F936F937F938F93E8
:1008C0009F93AF93BF93CF93DF93EF93FF93809169
:1008D0004D0190914E01019690934E0180934D01F0
:1008E000CE9708F461C010924E0110924D01809194
:1008F0004C018F5F80934C018C3308F455C01092EB
:100900004C01EFEFF1E0CDEDD1E0ADEBB1E080E0F7
:1009100090E021E030E0408151814115510529F0FE
:10092000415051095183408337C08830910550F4BC
:100930006BB3A901082E01C0440F0A94EAF764279B
:100940006BBB0CC065B3AC0148505109890102C0B2
:10095000000F111F4A95E2F7602765BB6091FD010A
:100960007091FE01A901082E02C0440F551F0A9480
:10097000E2F78A0106231723012B19F00881198158
:1009800003C00D911C9111971183008346275727AF
:100990005093FE014093FD010196329622961296E5
:1009A0008031910509F0B7CFFF91EF91DF91CF91A1
:1009B000BF91AF919F918F917F916F915F914F9177
:1009C0003F912F911F910F910F900FBE0F901F908D
:1009D00018951F920F920FB60F921124CF92DF92AB
:1009E000EF92FF920F931F932F933F934F935F9339
:1009F0006F937F938F939F93AF93BF93EF93FF93E7
:100A0000CF93DF93CDB7DEB7C456D109DEBFCDBFDC
:100A1000CE0101967C0100E010E00E94EE05F70196
:100A200081937F01833141F4E1E0F0E0EC0FFD1FA1
:100A3000E00FF11F108207C08A30B1F30F5F1F4F24
:100A40000436110551F789818823E1F089E291E0AC
:100A50000E9415066E01F5E6CF0ED11C8E010F5FC8
:100A60001F4F7801F80181918F010E94E105F70184
:100A70008081882319F00C151D0599F78AE090E014
:100A80000E940E06CE0101960E946400CC59DF4FF1
:100A90000FB6F894DEBF0FBECDBFDF91CF91FF91AF
:100AA000EF91BF91AF919F918F917F916F915F91E6
:100AB0004F913F912F911F910F91FF90EF90DF90F9
:100AC000CF900F900FBE0F901F901895F8942AE0CA
:100AD00088E190E00FB6F894A89581BD0FBE21BDC6
:100AE000C0E0D0E08BB386958BBB1BB3CE010E94D8
:100AF000FF0220E8829FC0011124812B8BBB21962D
:100B0000C830D10579F7C8E0D0E085B3869585BBBC
:100B100015B3CE010E94FF0220E8829FC00111247C
:100B2000812B85BB2196C031D10579F78FEF8ABB28
:100B300084BB8FEF91E09093BC018093BB018091C7
:100B4000BB019091BC010E94FF028F3F31F0809168
:100B5000BB019091BC010197EECF25B38BB390E020
:100B6000922B9093FE018093FD010E94D2050E947A
:100B700006030E94C4050E94CB05789484E391E0AB
:100B80000E941506A895FECF85E083BF12BE89B7E7
:100B9000816089BF089587E085BD14BC89B78064F2
:100BA00089BF0895599A10BC8FEC89B988E98AB930
:100BB00086E880BD82E690E0909322028093210235
:100BC00008955D9902C0A895FCCF8CB90895CF9384
:100BD000C82F0E94E1058C2FCF9108955F9902C024
:100BE000A895FCCF8CB10895EE0FFF1F0590F491EE
:100BF000E02D0994A0E0B0E0E0E0F6E00C94270CD2
:100C0000FE01359661917191AF0180912102909121
:100C100022020E947D06E2E00C94430C60912102C6
:100C2000709122020E946B0B08950F931F93CF9334
:100C3000DF93E0912102F0912202238121FF1BC06A
:100C4000EC0100E010E08991609121027091220294
:100C5000DB011896ED91FC911997882331F00995E5
:100C6000892B89F30FEF1FEFEECF8AE00995892BCF
:100C700011F4C80102C08FEF9FEFDF91CF911F9158
:100C80000F910895AEE0B0E0E8E4F6E00C94250C96
:100C90000D891E8986E08C831A8309838FEF9FE775
:100CA0009E838D83AE01475E5F4F6F89788DCE0145
:100CB00001960E947D06EF81F885E00FF11F1082FA
:100CC0002E96E4E00C94410CAEE0B0E0EAE6F6E0EB
:100CD0000C94270C85E08C838B899C899A8389836B
:100CE000AE01495E5F4F6D897E89CE0101960E94FB
:100CF000CD092E96E2E00C94430CACE0B0E0E3E8C2
:100D0000F6E00C94170C7C016B018A01FC01178240
:100D10001682838181FFBDC1CE0101964C01F7018E
:100D20009381F60193FD859193FF81916F01882353
:100D300009F4ABC1853239F493FD859193FF81911C
:100D40006F01853229F4B70190E00E946B0BE7CF69
:100D5000512C312C20E02032A0F48B3269F030F499
:100D6000803259F0833269F420612CC08D3239F021
:100D7000803339F4216026C02260246023C02860BB
:100D800021C027FD27C030ED380F3A3078F426FF18
:100D900006C0FAE05F9E300D1124532E13C08AE086
:100DA000389E300D1124332E20620CC08E3221F477
:100DB00026FD6BC1206406C08C3611F4206802C089
:100DC000883641F4F60193FD859193FF81916F017F
:100DD0008111C1CF982F9F7D9554933028F40C5FDB
:100DE0001F4FFFE3F9830DC0833631F0833771F075
:100DF000833509F05BC022C0F801808189830E5FD2
:100E00001F4F44244394512C540115C03801F2E083
:100E10006F0E711CF801A080B18026FF03C0652D04
:100E200070E002C06FEF7FEFC5012C870E94220B9C
:100E30002C0183012C852F77222E17C03801F2E078
:100E40006F0E711CF801A080B18026FF03C0652DD4
:100E500070E002C06FEF7FEFC5012C870E94170B77
:100E60002C012C852068222E830123FC1BC0832D9E
:100E700090E048165906B0F4B70180E290E00E9475
:100E80006B0B3A94F4CFF50127FC859127FE8191F5
:100E90005F01B70190E00E946B0B31103A94F1E0D2
:100EA0004F1A51084114510471F7E5C0843611F00E
:100EB000893639F5F80127FF07C060817181828189
:100EC00093810C5F1F4F08C060817181882777FD77
:100ED0008095982F0E5F1F4F2F76B22E97FF09C077
:100EE00090958095709561957F4F8F4F9F4F2068AB
:100EF000B22E2AE030E0A4010E94B60BA82EA8185A
:100F000044C0853729F42F7EB22E2AE030E025C078
:100F1000F22FF97FBF2E8F36C1F018F4883579F0A3
:100F2000B4C0803719F0883721F0AFC02F2F20616F
:100F3000B22EB4FE0DC08B2D8460B82E09C024FFE4
:100F40000AC09F2F9660B92E06C028E030E005C089
:100F500020E130E002C020E132E0F801B7FE07C036
:100F600060817181828193810C5F1F4F06C0608117
:100F7000718180E090E00E5F1F4FA4010E94B60BCC
:100F8000A82EA818FB2DFF77BF2EB6FE0BC02B2D69
:100F90002E7FA51450F4B4FE0AC0B2FC08C02B2D5D
:100FA0002E7E05C07A2C2B2D03C07A2C01C0752C07
:100FB00024FF0DC0FE01EA0DF11D8081803311F484
:100FC000297E09C022FF06C07394739404C0822F47
:100FD000867809F0739423FD13C020FF06C05A2CB5
:100FE000731418F4530C5718732C731468F4B70166
:100FF00080E290E02C870E946B0B73942C85F5CFD8
:10100000731410F4371801C0312C24FF12C0B7013B
:1010100080E390E02C870E946B0B2C8522FF17C089
:1010200021FF03C088E590E002C088E790E0B701A7
:101030000CC0822F867859F021FD02C080E201C0E9
:101040008BE227FD8DE2B70190E00E946B0BA514A7
:1010500038F4B70180E390E00E946B0B5A94F7CF0D
:10106000AA94F401EA0DF11D8081B70190E00E947D
:101070006B0BA110F5CF332009F451CEB70180E2FC
:1010800090E00E946B0B3A94F6CFF701868197812E
:1010900002C08FEF9FEF2C96E2E10C94330C20FD01
:1010A00009C0FC0123FD05C022FF02C073836283D7
:1010B00051834083089544FD10C046FD10C0DB01FC
:1010C000FC01AA0FBB1FEE1FFF1F1094D1F76A0F80
:1010D0007B1F8E1F9F1F31E003C033E001C034E04F
:1010E000660F771F881F991F3150D1F7620F711D4E
:1010F000811D911D08950F931F93CF93DF938C0152
:10110000C8010E942D0BEC0197FD08C00E94040B42
:10111000892BB1F7B801CE010E949D0BCE01DF9162
:10112000CF911F910F9108958F929F92AF92CF927E
:10113000DF92EF92FF920F931F93CF93DF93EC0117
:10114000A62E4A01022F0E942D0BAC0155274B32CF
:10115000510521F04D32510551F40068AA9411F463
:1011600080E067C0CE010E942D0B97FDF9CF102FB4
:101170001D7F302F307301F58033F1F4FF24FA9492
:10118000FA0C09F442C0CE010E942D0B97FD3DC020
:10119000382F3F7D383551F41264AA94AA94A9F1EE
:1011A000CE010E942D0B97FF07C02FC006FF02C083
:1011B000126001C01261AF2CC12CD12C760120ED40
:1011C000280F283080F014FF04C0BE010E949D0B40
:1011D00019C02A3040F016FFF8CF2F7D3FEE320FB6
:1011E000363098F72750412FC701B6010E945B089F
:1011F0006B017C011260AA9459F0CE010E942D0B64
:1012000097FFDDCF11FD04C0ABCFC12CD12C7601EF
:1012100017FF08C0F094E094D094C094C11CD11C76
:10122000E11CF11C212FB701A601C4010E944F0847
:1012300081E0DF91CF911F910F91FF90EF90DF90B0
:10124000CF90AF909F908F900895A1E2B0E0EBE235
:10125000F9E00C941C0C5C017A018E010F5F1F4FAA
:10126000680180E2D8011D928A95E9F7F501738043
:1012700040E050E0812CB0E0912C81E090E0F90159
:1012800073FCA59173FEA1918F017A2F9F01A1118B
:1012900003C080E090E07DC0AE3519F441155105E2
:1012A00059F1E92DF0E0E417F5073CF4AD3569F1AB
:1012B000AD3219F4BB2319F103C0B11101C08A2E5C
:1012C000E72FE695E695E69586010E0F111DF801CC
:1012D000A72FA7708C0102C0000F111FAA95E2F77B
:1012E000D801B081BA2BB083781559F0781510F475
:1012F0007F5FE6CF7150E4CF9924939403C0B1E0AF
:1013000001C0B0E04F5F5F4FBACFBB2319F08E81B1
:1013100080628E83911003C09924939415C0F601C6
:10132000CE018196208120952193E817F907D1F706
:10133000F3CFE114F10429F0D7018C93F701319632
:101340007F01615001F1912CC50169A30E942D0B11
:1013500069A197FD16C0282F269526952695F6019A
:10136000E20FF11D208130E0AC014770552702C02B
:10137000359527954A95E2F720FDDBCFB5010E9410
:101380009D0B911086CFE114F10411F0D7011C924E
:10139000C801A196EDE00C94380C4F925F927F92B9
:1013A0008F929F92AF92BF92CF92DF92EF92FF9275
:1013B0000F931F93CF93DF931F92CDB7DEB78C01AE
:1013C0002B017A01FC0117821682A12CF801D3802F
:1013D000F201D3FC8591D3FE8191382F2F01882310
:1013E00009F4FCC090E039830E94040B3981892BF9
:1013F00021F0C8010E947B08E9CF353241F4F201A7
:10140000D3FC3591D3FE31912F01353269F4C801F7
:1014100039830E942D0B398197FDDEC03817B1F258
:10142000B8010E949D0BDAC03A3241F4D3FC3591E9
:10143000D3FE31912F01BB24B39401C0B12C712C88
:1014400020ED230F2A3090F4FB2DF260BF2E672D84
:1014500070E080E090E040E20E945B08762EF201AE
:10146000D3FC3591D3FE31912F01EACFB1FE03C0F9
:10147000711003C0B3C077247A94383619F03C3623
:1014800061F014C0F201D3FC3591D3FE31912F01EC
:10149000383661F4FB2DF860BF2E8B2D8460B82E9A
:1014A000F201D3FC3591D3FE31912F01332309F49E
:1014B00095C0632F70E08EE790E039830E940C0B9B
:1014C0003981892B09F48AC0B0FC07C0F701C080BC
:1014D000D180C70102967C0102C0C12CD12C3E36BE
:1014E00051F4F8014681578160E070E02B2DC60170
:1014F0000E944F086BCF3336A1F4B1FC02C07724B1
:101500007394C8010E942D0B97FD66C0C114D104CD
:1015100029F0F6018083C60101966C017A9489F75F
:1015200057C03B3559F49201A601672DC8010E94AE
:1015300025092C01009709F04BC045C0C80139832B
:101540000E947B08398197FD47C03F3669F128F436
:10155000343631F1393679F12BC0333769F035370C
:10156000F9F026C0C114D10429F0F6018082C60129
:1015700001966C017A9471F0C8010E942D0B4C0108
:1015800097FD08C00E94040B892B61F3B801C401C8
:101590000E949D0BC114D104D9F0F601108218C02D
:1015A000FB2DF062BF2E07C08B2D8061B82E03C0CB
:1015B0009B2D9064B92E2B2DA601672DC8010E948A
:1015C0009408811105C0F8018381807329F406C055
:1015D000B0FCFCCEA394FACEAA2019F08A2D90E09C
:1015E00002C08FEF9FEF0F90DF91CF911F910F916E
:1015F000FF90EF90DF90CF90BF90AF909F908F9033
:101600007F905F904F90089591110EC1803219F034
:1016100089508550D0F70895FC010590061621F0F9
:101620000020D9F7C00108953197CF010895FC013A
:101630000590615070400110D8F7809590958E0FFD
:101640009F1F0895FC016150704001900110D8F770
:10165000809590958E0F9F1F0895CF93DF93EC0197
:101660002B8120FF33C026FF0AC02F7B2B838E8166
:101670009F8101969F838E838A8190E029C022FFFB
:101680000FC0E881F9818081992787FD90950097A7
:1016900019F420622B831AC03196F983E8830EC0B7
:1016A000EA85FB85099597FF09C02B81019611F406
:1016B00080E101C080E2822B8B8308C02E813F81B4
:1016C0002F5F3F4F3F832E83992702C08FEF9FEFFD
:1016D000DF91CF9108950F931F93CF93DF93182F2E
:1016E000092FEB018B8181FD03C08FEF9FEF20C09D
:1016F00082FF10C04E815F812C813D8142175307CC
:101700007CF4E881F9819F012F5F3F4F3983288363
:10171000108306C0E885F985812F0995892B29F763
:101720002E813F812F5F3F4F3F832E83812F902F4C
:10173000DF91CF911F910F910895FB01238120FF2D
:1017400012C026FD10C08F3F3FEF930761F08283E8
:101750002F7D2064238326813781215031093783EF
:101760002683992708958FEF9FEF0895FA01AA27FE
:10177000283051F1203181F1E8946F936E7F6E5FD4
:101780007F4F8F4F9F4FAF4FB1E03ED0B4E03CD082
:10179000670F781F891F9A1FA11D680F791F8A1F65
:1017A000911DA11D6A0F711D811D911DA11D20D0CC
:1017B00009F468943F912AE0269F11243019305D86
:1017C0003193DEF6CF010895462F4770405D419377
:1017D000B3E00FD0C9F7F6CF462F4F70405D4A33C4
:1017E00018F0495D31FD4052419302D0A9F7EACF8C
:1017F000B4E0A6959795879577956795BA95C9F7BB
:1018000000976105710508959B01AC010A2E0694AD
:101810005795479537952795BA95C9F7620F731F66
:10182000841F951FA01D08959927882708952F923A
:101830003F924F925F926F927F928F929F92AF9260
:10184000BF92CF92DF92EF92FF920F931F93CF93AD
:10185000DF93CDB7DEB7CA1BDB0B0FB6F894DEBF44
:101860000FBECDBF09942A88398848885F846E846A
:101870007D848C849B84AA84B984C884DF80EE80B4
:10188000FD800C811B81AA81B981CE0FD11D0FB6BD
:10189000F894DEBF0FBECDBFED010895F894FFCFE1
:1018A000FF010000000200000000E705000000004A
:1018B0005541256336353533352F30005541256385
:1018C000302F3635353335005543256336353533BE
:1018D000352F300055432563302F363535333500ED
:1018E00025642E25780A0054256425730057726FED
:1018F0006E6720636F646521005525632563256449
:101900002F25640057726F6E6720706F72740052DB
:1019100045424F4F54494E4700465F4350553A2089
:10192000256C6420487A0A0054696D653A256C6418
:10193000730A00556E7265636F676E697A6564201D
:10194000636F64653A25730A0074696D653A256CA6
:10195000640A004175746F2072756E6E696E67203F
:10196000636F6D6D616E643A000A526563656976F6
:1019700065643A000A456E746572696E6720746822
:0C19800065206D61696E206C6F6F700057
:00000001FF
