:100000000C9445000C9462000C9462000C94620005
:100010000C9416040C9462000C9462000C94620020
:100020000C9462000C945D030C9462000C94AD047B
:100030000C9462000C9462000C9462000C946200B8
:100040000C9462000C9462000C9462000C946200A8
:100050000C9462008C00C302F400C3025801A90290
:10006000C302C302C302C302C302C302C302C30268
:10007000C302C302C3029B02C302E00141026364E4
:10008000696E6F70737578585B0011241FBECFE5E1
:10009000D4E0DEBFCDBF11E0A0E6B0E0E0EFF7E1D5
:1000A00002C005900D92AE32B107D9F722E0AEE260
:1000B000B1E001C01D92A736B207E1F70E944005EA
:1000C0000C94F60B0C940000CF92DF92EF92FF920B
:1000D0000F931F93CF93DF93CDB7DEB728970FB65B
:1000E000F894DEBF0FBECDBF8C01DC011196FC90F1
:1000F00011972F2D30E0C901C0979E838D834C91BD
:1001000050E0415451094531510508F03CC2465D6B
:100110005F4FFA010C94B705D80112962C91203349
:1001200029F161E30E94E8022BB3EE24E394F12C61
:10013000C7010D8002C0880F991F0A94E2F7282B8F
:100140002BBBF80181811F928F9382E690E09F93F1
:100150008F9385E391E09F938F930E94EA050D8032
:1001600002C0EE0CFF1C0A94E2F76AC060E30E9432
:10017000E8022BB3EE24E394F12CC7010D8002C0FA
:10018000880F991F0A94E2F7809582238BBBD801D0
:1001900011968C911F928F938EE690E09F938F9390
:1001A00085E391E09F938F930E94EA0597010D806C
:1001B00002C0220F331F0A94E2F7209530958091F8
:1001C000DB019091DC01822393239093DC018093E7
:1001D000DB010F900F900F900F900F900F9085E321
:1001E00091E00E946400E5C1F80122810896203365
:1001F00071F161E30E94E80225B3EE24E394F12C4F
:10020000C7010D8002C0880F991F0A94E2F7282BBE
:1002100025BBD80111968C911F928F938AE790E0AD
:100220009F938F9385E391E09F938F930E94EA05BC
:100230008D819E81089602C0EE0CFF1C8A95E2F724
:100240008091DB019091DC018E299F29BECF60E374
:100250000E94E80225B3EE24E394F12CC7010D803F
:1002600002C0880F991F0A94E2F78095822385BB0C
:10027000F80181811F928F9386E890E09F938F937E
:1002800085E391E09F938F930E94EA058D819E8183
:100290000896970102C0220F331F8A95E2F7209536
:1002A00030958091DB019091DC01822793278DCFDF
:1002B000D80112966C91693681F4E12CF12CA89545
:1002C000F8016181C7010E94E802FFEFEF1AFF0AFF
:1002D00020E1E216F10499F76CC16636D1F431E6FB
:1002E000F31203C080E092E002C080E190E09E83C0
:1002F0008D8300E010E08D819E810817190708F0BA
:1003000058C1A8956FEFC8010E94E8020F5F1F4F08
:10031000F2CF623731F4C9010E94F00280958BBBA5
:1003200048C182E5F8124AC0CE0105969F938F938B
:1003300084EB90E09F938F930E5F1F4F1F930F935B
:100340000E940C060F900F900F900F900F900F903F
:10035000019769F48D819E810E94F0021F928F9314
:100360008E818F938D818F9382E990E0FAC000E0B7
:1003700010E032E9C32E30E0D32E45E3E42E41E015
:10038000F42EC8010E94F0021F928F931F930F93C7
:10039000DF92CF92FF92EF920E94EA0585E391E00F
:1003A0000E94AB050F5F1F4F0FB6F894DEBF0FBE64
:1003B000CDBF0115F2E01F0721F7FBC0C90159C0ED
:1003C0001F930F93CE0103969F938F9389E990E03B
:1003D0009F938F931F930F930E940C060FB6F89470
:1003E000DEBF0FBECDBF029709F046C06C81809181
:1003F000990190919A019C012150310930939A0101
:10040000209399010E94E8026B818091990190915B
:100410009A019C012150310930939A01209399014E
:100420000E94E8027801F80101900020E9F7319775
:10043000E01BF10B8091990190919A019701201B8B
:10044000310B2E173F0768F4D7016D917D019C0198
:100450002150310930939A01209399010E94E802BA
:10046000E2CF9C012150310930939A0120939901E8
:100470006AE00E94E8029DC08FE990E00E94AB050F
:1004800098C0CE0101969F938F9302969F938F936E
:1004900004969F938F9301969F938F938CEA90E09D
:1004A0009F938F931F930F930E940C060FB6F8949F
:1004B000DEBF0FBECDBF049709F07BC088858134B5
:1004C00019F480E190E004C08334B1F480E390E05B
:1004D0009E838D838F8190ED980F9A3090F490E0F9
:1004E000C097880F991F880F991F2D813E81280F73
:1004F000391F3E832D8305C087EB90E00E94BD0528
:1005000058C06C818D819E810E94E8028D819E8100
:100510006B8101960E94E8026A818D819E8102961C
:100520000E94E8028D819E81698103960E94E80203
:100530000E94F7023EC082EC90E00E94AB0528E0EA
:1005400088E190E00FB6F894A89581BD0FBE21BD5B
:10055000FFCF1F928AE78F9382E18F931F928DECDA
:1005600090E09F938F9385E391E09F938F930E94F8
:10057000EA0585E391E00E94AB050FB6F894DEBF73
:100580000FBECDBF16C01F930F938CED90E09F93CD
:100590008F9385E391E09F938F930E94EA0585E313
:1005A00091E00E94AB050F900F900F900F900F906D
:1005B0000F9028960FB6F894DEBF0FBECDBFDF9127
:1005C000CF911F910F91FF90EF90DF90CF90089502
:1005D000E199FECF9FBB8EBB6DBBE29AE19A089575
:1005E000E199FECF9FBB8EBBE09A8DB30895FF9239
:1005F0000F931F93CF93DF93C0E0D0E08E0115954A
:10060000079515950795CE0140960E94F002F82EA9
:10061000CE0141960E94F002000F111FF801E5562D
:10062000FE4F2F2D30E0322F2227282B31832083BD
:10063000CE0142960E94F002F82ECE0143960E940F
:10064000F002F801E554FE4F2F2D30E0322F222723
:10065000282B318320832496C034D10579F640912C
:10066000DB015091DC01CBE9D1E0EDEDF1E0ABEB4A
:10067000B1E080E090E061E070E09B01082E02C0F4
:10068000220F331F0A94E2F724233523232B19F07A
:100690002881398103C02D913C91119731832083AA
:1006A00001962296329612968031910531F7DF91AC
:1006B000CF911F910F91FF9008951F920F920FB647
:1006C0000F921124CF92DF92EF92FF920F931F931C
:1006D0002F933F934F935F936F937F938F939F934A
:1006E000AF93BF93EF93FF93CF93DF93CDB7DEB775
:1006F000C456D109DEBFCDBF809133019091340142
:10070000019690933401809333014F9708F46EC0A3
:100710001092340110923301809131019091320195
:100720000196909332018093310180916000909105
:1007300061000E94F002182F80916000909161008A
:1007400001970E94F002212F30E0322F2227282B20
:100750002F3F8FEF380709F449C080913101909104
:1007600032018217930708F441C080916000909194
:100770006100029790936100809360008E010F5F8B
:100780001F4F78016801CE18DF08809160009091BA
:1007900061000E94F002F80181938F0120916000B6
:1007A000309161008A30C9F4FE01EC0DFD1D12820A
:1007B00021503109309361002093600082EF90E076
:1007C0000E94AB05C7010E94AB05C7010E946400EF
:1007D000109232011092310109C0833129F3215066
:1007E00031093093610020936000CCCFCC59DF4FAA
:1007F0000FB6F894DEBF0FBECDBFDF91CF91FF9152
:10080000EF91BF91AF919F918F917F916F915F9188
:100810004F913F912F911F910F91FF90EF90DF909B
:10082000CF900F900FBE0F901F9018951F920F92B0
:100830000FB60F9211240F931F932F933F934F9353
:100840005F936F937F938F939F93AF93BF93CF9358
:10085000DF93EF93FF9380912F01909130010196E8
:100860009093300180932F014F9708F461C010924C
:10087000300110922F0180912E018F5F80932E0105
:100880008C3308F455C010922E01EDEDF1E0CBEB66
:10089000D1E0ABE9B1E080E090E021E030E04081E0
:1008A00051814115510529F041505109518340832F
:1008B00037C08830910550F46BB3A901082E01C0F0
:1008C000440F0A94EAF764276BBB0CC065B3AC0114
:1008D00048505109890102C0000F111F4A95E2F7E3
:1008E000602765BB6091DB017091DC01A901082ED6
:1008F00002C0440F551F0A94E2F78A01062317230A
:10090000012B19F00881198103C00D911C911197D9
:1009100011830083462757275093DC014093DB0166
:1009200001963296229612968031910509F0B7CF42
:10093000FF91EF91DF91CF91BF91AF919F918F91F7
:100940007F916F915F914F913F912F911F910F91E7
:100950000F900FBE0F901F9018951F920F920FB619
:100960000F921124CF92DF92EF92FF920F931F9379
:100970002F933F934F935F936F937F938F939F93A7
:10098000AF93BF93EF93FF93CF93DF93CDB7DEB7D2
:10099000C456D109DEBFCDBFCE0101967C0100E077
:1009A00010E00E94A505F70181937F01833141F496
:1009B000E1E0F0E0EC0FFD1FE00FF11F108207C037
:1009C0008A30B1F30F5F1F4F0436110551F789814B
:1009D0008823E1F088E091E00E94AB056E01F5E626
:1009E000CF0ED11C8E010F5F1F4F7801F80181914E
:1009F0008F010E949F05F7018081882319F00C1553
:100A00001D0599F78AEA90E00E94AB05CE01019698
:100A10000E946400CC59DF4F0FB6F894DEBF0FBEC2
:100A2000CDBFDF91CF91FF91EF91BF91AF919F919A
:100A30008F917F916F915F914F913F912F911F9176
:100A40000F91FF90EF90DF90CF900F900FBE0F901F
:100A50001F90189510BC84E389B988E98AB986E8A3
:100A600080BD089585E083BF12BE89B7816089BFCC
:100A7000089587E085BD14BC89B7806489BF089557
:100A80002AE088E190E00FB6F894A89581BD0FBEEA
:100A900021BD1BBA15BAC0E0D0E08BB386958BBBE5
:100AA0001BB3CE010E94F00220E8829FC0011124F6
:100AB000812B8BBB2196C830D10579F7C8E0D0E0F7
:100AC00085B3869585BB15B3CE010E94F00220E860
:100AD000829FC0011124812B85BB2196C031D10595
:100AE00079F78FEF8ABB84BB8FEF91E090939A01E7
:100AF000809399018091990190919A010E94F0024E
:100B00008F3F31F08091990190919A010197EECF3A
:100B100025B38BB390E0922B9093DC018093DB01A3
:100B20000E942A050E94F7020E9432050E943905A0
:100B3000789484E191E00E94AB05A895FECF5D9981
:100B400002C0A895FCCF8CB908955F9902C0A89502
:100B5000FCCF8CB10895CF93DF93EC01899188236A
:100B600019F00E949F05FACFDF91CF910895EE0F03
:100B7000FF1F0590F491E02D09940F931F93CF93DD
:100B8000DF93E0916302F0916402238121FF1BC097
:100B9000EC0100E010E089916091630270916402C1
:100BA000DB011896ED91FC911997882331F0099596
:100BB000892B89F30FEF1FEFEECF8AE00995892B80
:100BC00011F4C80102C08FEF9FEFDF91CF911F9109
:100BD0000F910895AEE0B0E0E0EFF5E00C94CD0B9E
:100BE0000D891E8986E08C831A8309838FEF9FE726
:100BF0009E838D83AE01475E5F4F6F89788DCE01F6
:100C000001960E942506EF81F885E00FF11F108202
:100C10002E96E4E00C94E90BAEE0B0E0E2E1F6E001
:100C20000C94CF0B85E08C838B899C899A83898374
:100C3000AE01495E5F4F6D897E89CE0101960E94AB
:100C400075092E96E2E00C94EB0BACE0B0E0EBE221
:100C5000F6E00C94BF0B7C016B018A01FC0117824A
:100C60001682838181FFBDC1CE0101964C01F7013F
:100C70009381F60193FD859193FF81916F01882304
:100C800009F4ABC1853239F493FD859193FF8191CD
:100C90006F01853229F4B70190E00E94130BE7CF72
:100CA000512C312C20E02032A0F48B3269F030F44A
:100CB000803259F0833269F420612CC08D3239F0D2
:100CC000803339F4216026C02260246023C028606C
:100CD00021C027FD27C030ED380F3A3078F426FFC9
:100CE00006C0FAE05F9E300D1124532E13C08AE037
:100CF000389E300D1124332E20620CC08E3221F428
:100D000026FD6BC1206406C08C3611F4206802C039
:100D1000883641F4F60193FD859193FF81916F012F
:100D20008111C1CF982F9F7D9554933028F40C5F8B
:100D30001F4FFFE3F9830DC0833631F0833771F025
:100D4000833509F05BC022C0F801808189830E5F82
:100D50001F4F44244394512C540115C03801F2E034
:100D60006F0E711CF801A080B18026FF03C0652DB5
:100D700070E002C06FEF7FEFC5012C870E94CA0AA6
:100D80002C0183012C852F77222E17C03801F2E029
:100D90006F0E711CF801A080B18026FF03C0652D85
:100DA00070E002C06FEF7FEFC5012C870E94BF0A81
:100DB0002C012C852068222E830123FC1BC0832D4F
:100DC00090E048165906B0F4B70180E290E00E9426
:100DD000130B3A94F4CFF50127FC859127FE8191FE
:100DE0005F01B70190E00E94130B31103A94F1E0DB
:100DF0004F1A51084114510471F7E5C0843611F0BF
:100E0000893639F5F80127FF07C060817181828139
:100E100093810C5F1F4F08C060817181882777FD27
:100E20008095982F0E5F1F4F2F76B22E97FF09C027
:100E300090958095709561957F4F8F4F9F4F20685B
:100E4000B22E2AE030E0A4010E945E0BA82EA81862
:100E500044C0853729F42F7EB22E2AE030E025C029
:100E6000F22FF97FBF2E8F36C1F018F4883579F054
:100E7000B4C0803719F0883721F0AFC02F2F206120
:100E8000B22EB4FE0DC08B2D8460B82E09C024FF95
:100E90000AC09F2F9660B92E06C028E030E005C03A
:100EA00020E130E002C020E132E0F801B7FE07C0E7
:100EB00060817181828193810C5F1F4F06C06081C8
:100EC000718180E090E00E5F1F4FA4010E945E0BD5
:100ED000A82EA818FB2DFF77BF2EB6FE0BC02B2D1A
:100EE0002E7FA51450F4B4FE0AC0B2FC08C02B2D0E
:100EF0002E7E05C07A2C2B2D03C07A2C01C0752CB8
:100F000024FF0DC0FE01EA0DF11D8081803311F434
:100F1000297E09C022FF06C07394739404C0822FF7
:100F2000867809F0739423FD13C020FF06C05A2C65
:100F3000731418F4530C5718732C731468F4B70116
:100F400080E290E02C870E94130B73942C85F5CFE0
:100F5000731410F4371801C0312C24FF12C0B701EC
:100F600080E390E02C870E94130B2C8522FF17C092
:100F700021FF03C088E590E002C088E790E0B70158
:100F80000CC0822F867859F021FD02C080E201C09A
:100F90008BE227FD8DE2B70190E00E94130BA514B0
:100FA00038F4B70180E390E00E94130B5A94F7CF16
:100FB000AA94F401EA0DF11D8081B70190E00E942E
:100FC000130BA110F5CF332009F451CEB70180E205
:100FD00090E00E94130B3A94F6CFF7018681978137
:100FE00002C08FEF9FEF2C96E2E10C94DB0B20FD0B
:100FF00009C0FC0123FD05C022FF02C07383628388
:1010000051834083089544FD10C046FD10C0DB01AC
:10101000FC01AA0FBB1FEE1FFF1F1094D1F76A0F30
:101020007B1F8E1F9F1F31E003C033E001C034E0FF
:10103000660F771F881F991F3150D1F7620F711DFE
:10104000811D911D08950F931F93CF93DF938C0102
:10105000C8010E94D50AEC0197FD08C00E94AC0AA5
:10106000892BB1F7B801CE010E94450BCE01DF916B
:10107000CF911F910F9108958F929F92AF92CF922F
:10108000DF92EF92FF920F931F93CF93DF93EC01C8
:10109000A62E4A01022F0E94D50AAC0155274B32D9
:1010A000510521F04D32510551F40068AA9411F414
:1010B00080E067C0CE010E94D50A97FDF9CF102FBE
:1010C0001D7F302F307301F58033F1F4FF24FA9443
:1010D000FA0C09F442C0CE010E94D50A97FD3DC02A
:1010E000382F3F7D383551F41264AA94AA94A9F19F
:1010F000CE010E94D50A97FF07C02FC006FF02C08D
:10110000126001C01261AF2CC12CD12C760120EDF0
:10111000280F283080F014FF04C0BE010E94450B48
:1011200019C02A3040F016FFF8CF2F7D3FEE320F66
:10113000363098F72750412FC701B6010E940308A7
:101140006B017C011260AA9459F0CE010E94D50A6D
:1011500097FFDDCF11FD04C0ABCFC12CD12C7601A0
:1011600017FF08C0F094E094D094C094C11CD11C27
:10117000E11CF11C212FB701A601C4010E94F70751
:1011800081E0DF91CF911F910F91FF90EF90DF9061
:10119000CF90AF909F908F900895A1E2B0E0E3EDE3
:1011A000F8E00C94C40B5C017A018E010F5F1F4FB5
:1011B000680180E2D8011D928A95E9F7F5017380F4
:1011C00040E050E0812CB0E0912C81E090E0F9010A
:1011D00073FCA59173FEA1918F017A2F9F01A1113C
:1011E00003C080E090E07DC0AE3519F44115510593
:1011F00059F1E92DF0E0E417F5073CF4AD3569F15C
:10120000AD3219F4BB2319F103C0B11101C08A2E0C
:10121000E72FE695E695E69586010E0F111DF8017C
:10122000A72FA7708C0102C0000F111FAA95E2F72B
:10123000D801B081BA2BB083781559F0781510F425
:101240007F5FE6CF7150E4CF9924939403C0B1E05F
:1012500001C0B0E04F5F5F4FBACFBB2319F08E8162
:1012600080628E83911003C09924939415C0F60177
:10127000CE018196208120952193E817F907D1F7B7
:10128000F3CFE114F10429F0D7018C93F7013196E3
:101290007F01615001F1912CC50169A30E94D50A1B
:1012A00069A197FD16C0282F269526952695F6014B
:1012B000E20FF11D208130E0AC014770552702C0DC
:1012C000359527954A95E2F720FDDBCFB5010E94C1
:1012D000450B911086CFE114F10411F0D7011C9257
:1012E000C801A196EDE00C94E00B4F925F927F92C3
:1012F0008F929F92AF92BF92CF92DF92EF92FF9226
:101300000F931F93CF93DF931F92CDB7DEB78C015E
:101310002B017A01FC0117821682A12CF801D380DF
:10132000F201D3FC8591D3FE8191382F2F018823C0
:1013300009F4FCC090E039830E94AC0A3981892B02
:1013400021F0C8010E942308E9CF353241F4F201AF
:10135000D3FC3591D3FE31912F01353269F4C801A8
:1013600039830E94D50A398197FDDEC03817B1F262
:10137000B8010E94450BDAC03A3241F4D3FC3591F2
:10138000D3FE31912F01BB24B39401C0B12C712C39
:1013900020ED230F2A3090F4FB2DF260BF2E672D35
:1013A00070E080E090E040E20E940308762EF201B7
:1013B000D3FC3591D3FE31912F01EACFB1FE03C0AA
:1013C000711003C0B3C077247A94383619F03C36D4
:1013D00061F014C0F201D3FC3591D3FE31912F019D
:1013E000383661F4FB2DF860BF2E8B2D8460B82E4B
:1013F000F201D3FC3591D3FE31912F01332309F44F
:1014000095C0632F70E08EE790E039830E94B40AA4
:101410003981892B09F48AC0B0FC07C0F701C0806C
:10142000D180C70102967C0102C0C12CD12C3E366E
:1014300051F4F8014681578160E070E02B2DC60120
:101440000E94F7076BCF3336A1F4B1FC02C07724BA
:101450007394C8010E94D50A97FD66C0C114D104D7
:1014600029F0F6018083C60101966C017A9489F710
:1014700057C03B3559F49201A601672DC8010E945F
:10148000CD082C01009709F04BC045C0C801398335
:101490000E942308398197FD47C03F3669F128F43F
:1014A000343631F1393679F12BC0333769F03537BD
:1014B000F9F026C0C114D10429F0F6018082C601DA
:1014C00001966C017A9471F0C8010E94D50A4C0112
:1014D00097FD08C00E94AC0A892B61F3B801C401D2
:1014E0000E94450BC114D104D9F0F601108218C036
:1014F000FB2DF062BF2E07C08B2D8061B82E03C07C
:101500009B2D9064B92E2B2DA601672DC8010E943A
:101510003C08811105C0F8018381807329F406C05D
:10152000B0FCFCCEA394FACEAA2019F08A2D90E04C
:1015300002C08FEF9FEF0F90DF91CF911F910F911E
:10154000FF90EF90DF90CF90BF90AF909F908F90E3
:101550007F905F904F90089591110EC1803219F0E5
:1015600089508550D0F70895FC010590061621F0AA
:101570000020D9F7C00108953197CF010895FC01EB
:101580000590615070400110D8F7809590958E0FAE
:101590009F1F0895FC016150704001900110D8F721
:1015A000809590958E0F9F1F0895CF93DF93EC0148
:1015B0002B8120FF33C026FF0AC02F7B2B838E8117
:1015C0009F8101969F838E838A8190E029C022FFAC
:1015D0000FC0E881F9818081992787FD9095009758
:1015E00019F420622B831AC03196F983E8830EC068
:1015F000EA85FB85099597FF09C02B81019611F4B7
:1016000080E101C080E2822B8B8308C02E813F8164
:101610002F5F3F4F3F832E83992702C08FEF9FEFAD
:10162000DF91CF9108950F931F93CF93DF93182FDE
:10163000092FEB018B8181FD03C08FEF9FEF20C04D
:1016400082FF10C04E815F812C813D81421753077C
:101650007CF4E881F9819F012F5F3F4F3983288314
:10166000108306C0E885F985812F0995892B29F714
:101670002E813F812F5F3F4F3F832E83812F902FFD
:10168000DF91CF911F910F910895FB01238120FFDE
:1016900012C026FD10C08F3F3FEF930761F0828399
:1016A0002F7D2064238326813781215031093783A0
:1016B0002683992708958FEF9FEF0895FA01AA27AF
:1016C000283051F1203181F1E8946F936E7F6E5F85
:1016D0007F4F8F4F9F4FAF4FB1E03ED0B4E03CD033
:1016E000670F781F891F9A1FA11D680F791F8A1F16
:1016F000911DA11D6A0F711D811D911DA11D20D07D
:1017000009F468943F912AE0269F11243019305D36
:101710003193DEF6CF010895462F4770405D419327
:10172000B3E00FD0C9F7F6CF462F4F70405D4A3374
:1017300018F0495D31FD4052419302D0A9F7EACF3C
:10174000B4E0A6959795879577956795BA95C9F76B
:1017500000976105710508959B01AC010A2E06945E
:101760005795479537952795BA95C9F7620F731F17
:10177000841F951FA01D08959927882708952F92EB
:101780003F924F925F926F927F928F929F92AF9211
:10179000BF92CF92DF92EF92FF920F931F93CF935E
:1017A000DF93CDB7DEB7CA1BDB0B0FB6F894DEBFF5
:1017B0000FBECDBF09942A88398848885F846E841B
:1017C0007D848C849B84AA84B984C884DF80EE8065
:1017D000FD800C811B81AA81B981CE0FD11D0FB66E
:1017E000F894DEBF0FBECDBFED010895F894FFCF92
:1017F000FF015541256336353533352F30005541CE
:101800002563302F3635353335005543256336355E
:101810003533352F300055432563302F363535337A
:10182000350025642E25780A005425642573005759
:10183000726F6E6720636F6465210A00552563250A
:101840006325642F25640057726F6E6720706F7276
:1018500074005245424F4F54494E470A00465F4379
:1018600050553A20256C6420487A0A00556E7265FE
:10187000636F676E697A656420636F64653A257388
:101880000A004175746F2072756E6E696E67206311
:101890006F6D6D616E643A000A52656365697665C5
:1018A000643A0A000A456E746572696E672074684E
:0E18B00065206D61696E206C6F6F700A00001C
:00000001FF
