:100000000C9430000C944D000C944D000C944D0059
:100010000C94E6030C944D000C944D000C944D0090
:100020000C944D000C942D030C944D000C947D0405
:100030000C944D000C944D000C944D000C944D000C
:100040000C944D000C944D000C944D000C944D00FC
:100050000C944D006364696E6F70737578585B0023
:1000600011241FBECFE5D4E0DEBFCDBF10E0A0E677
:10007000B0E0E0E6F7E102C005900D92AA3FB107BB
:10008000D9F722E0AAEFB0E001C01D92A333B20776
:10009000E1F70E9410050C94AE0B0C940000CF9277
:1000A000DF92EF92FF920F931F93CF93DF93CDB721
:1000B000DEB728970FB6F894DEBF0FBECDBF8C0118
:1000C000FC015181852F90E09C01205331093E8332
:1000D0002D834081453409F4D9C030F4413459F0BE
:1000E000433409F470C01FC2443509F461C1453579
:1000F00009F4BFC118C2F8018281803331F161E394
:10010000C9010E94B8022BB3EE24E394F12CC7017D
:100110000D8002C0880F991F0A94E2F7282B2BBB91
:10012000F80181811F928F9382E690E09F938F93D5
:1001300081E091E09F938F930E94A2050D8002C001
:10014000EE0CFF1C0A94E2F769C060E3C9010E944B
:10015000B8022BB3EE24E394F12CC7010D8002C04A
:10016000880F991F0A94E2F7809582238BBBF801D0
:1001700081811F928F938EE690E09F938F9381E011
:1001800091E09F938F930E94A20597010D8002C07A
:10019000220F331F0A94E2F7209530958091A70132
:1001A0009091A801822393239093A8018093A701A3
:1001B0000F900F900F900F900F900F9081E091E0B3
:1001C0000E944F00C6C1F80122818897203369F14F
:1001D00061E30E94B80225B3EE24E394F12CC70139
:1001E0000D8002C0880F991F0A94E2F7282B25BBC7
:1001F000F80181811F928F938AE790E09F938F93FC
:1002000081E091E09F938F930E94A2058D819E8152
:10021000089602C0EE0CFF1C8A95E2F78091A701B8
:100220009091A8018E299F29BFCF60E30E94B80258
:1002300025B3EE24E394F12CC7010D8002C0880F92
:10024000991F0A94E2F78095822385BBF80181818A
:100250001F928F9386E890E09F938F9381E091E0C7
:100260009F938F930E94A2058D819E81089697018E
:1002700002C0220F331F8A95E2F7209530958091B6
:10028000A7019091A801822793278ECFF801628160
:10029000693679F4E12CF12CF8016181C7010E94E3
:1002A000B802FFEFEF1AFF0A20E1E216F104A1F70E
:1002B00050C16636C1F4513619F480E092E002C0B4
:1002C00080E190E09E838D8300E010E08D819E812F
:1002D0000817190708F03DC16FEFC8010E94B80266
:1002E0000F5F1F4FF3CF623729F40E94C002809541
:1002F0008BBB2FC1523509F0B4C0CE0105969F9338
:100300008F9384EB90E09F938F930E5F1F4F1F930B
:100310000F930E94C4050F900F900F900F900F90B5
:100320000F900197F1F48D819E810E94C0021F926F
:100330008F938E818F938D818F9382E990E09F932D
:100340008F9381E091E09F938F930E94A20581E0BB
:1003500091E00E9469050FB6F894DEBF0FBECDBFD5
:10036000F8C000E010E032E9C32E30E0D32E41E0C7
:10037000E42E41E0F42EC8010E94C0021F928F9328
:100380001F930F93DF92CF92FF92EF920E94A205EC
:1003900081E091E00E9469050F5F1F4F0FB6F8944E
:1003A000DEBF0FBECDBF0115F2E01F0721F7D1C0A0
:1003B0001F930F93CE0103969F938F9389E990E04B
:1003C0009F938F931F930F930E94C4050FB6F894C9
:1003D000DEBF0FBECDBF029709F046C06C81809191
:1003E0006501909166019C012150310930936601AD
:1003F000209365010E94B8026B8180916501909104
:1004000066019C01215031093093660120936501FA
:100410000E94B8027801F80101900020E9F73197B5
:10042000E01BF10B80916501909166019701201B03
:10043000310B2E173F0768F4F70161917F019C0192
:100440002150310930936601209365010E94B80262
:10045000E2CF9C0121503109309366012093650160
:100460006AE00E94B80275C08FE990E00E946905B9
:1004700070C0CE0101969F938F9302969F938F93A6
:1004800004969F938F9301969F938F938CEA90E0AD
:100490009F938F931F930F930E94C4050FB6F894F8
:1004A000DEBF0FBECDBF049709F053C088858134ED
:1004B00019F480E190E004C08334B1F480E390E06B
:1004C0009E838D838F8190ED980F9A3090F490E009
:1004D000C097880F991F880F991F2D813E81280F83
:1004E000391F3E832D8305C087EB90E00E94750580
:1004F00030C06C818D819E810E94B8028D819E8169
:100500006B8101960E94B8026A818D819E8102965C
:100510000E94B8028D819E81698103960E94B80273
:100520000E94C70216C01F930F9382EC90E09F9326
:100530008F9381E091E09F938F930E94A20581E0C9
:1005400091E00E9469050F900F900F900F900F900F
:100550000F9028960FB6F894DEBF0FBECDBFDF9187
:10056000CF911F910F91FF90EF90DF90CF90089562
:10057000E199FECF9FBB8EBB6DBBE29AE19A0895D5
:10058000E199FECF9FBB8EBBE09A8DB30895FF9299
:100590000F931F93CF93DF93C0E0D0E08E011595AA
:1005A000079515950795CE0140960E94C002F82E3A
:1005B000CE0141960E94C002000F111FF801E959B7
:1005C000FE4F2F2D30E0322F2227282B318320831E
:1005D000CE0142960E94C002F82ECE0143960E94A0
:1005E000C002F801E957FE4F2F2D30E0322F2227AD
:1005F000282B318320832496C034D10579F640918D
:10060000A7015091A801C7E6D1E0E9EAF1E0A7E827
:10061000B1E080E090E061E070E09B01082E02C054
:10062000220F331F0A94E2F724233523232B19F0DA
:100630002881398103C02D913C911197318320830A
:1006400001962296329612968031910531F7DF910C
:10065000CF911F910F91FF9008951F920F920FB6A7
:100660000F921124CF92DF92EF92FF920F931F937C
:100670002F933F934F935F936F937F938F939F93AA
:10068000AF93BF93EF93FF93CF93DF93CDB7DEB7D5
:10069000C456D109DEBFCDBF8091FF00909100010B
:1006A0000196909300018093FF00CE9708F46EC0EE
:1006B000109200011092FF008091FD009091FE00C9
:1006C00001969093FE008093FD00809160009091D0
:1006D00061000E94C002182F80916000909161001B
:1006E00001970E94C002212F30E0322F2227282BB1
:1006F0002F3F8FEF380709F449C08091FD0090919A
:10070000FE008217930708F441C080916000909129
:100710006100029790936100809360008E010F5FEB
:100720001F4F78016801CE18DF088091600090911A
:1007300061000E94C002F80181938F012091600046
:10074000309161008A30C9F4FE01EC0DFD1D12826A
:1007500021503109309361002093600088ED90E0D2
:100760000E946905C7010E946905C7010E944F00E8
:100770001092FE001092FD0009C0833129F3215030
:1007800031093093610020936000CCCFCC59DF4F0A
:100790000FB6F894DEBF0FBECDBFDF91CF91FF91B2
:1007A000EF91BF91AF919F918F917F916F915F91E9
:1007B0004F913F912F911F910F91FF90EF90DF90FC
:1007C000CF900F900FBE0F901F9018951F920F9211
:1007D0000FB60F9211240F931F932F933F934F93B4
:1007E0005F936F937F938F939F93AF93BF93CF93B9
:1007F000DF93EF93FF938091FB009091FC000196B3
:100800009093FC008093FB00CE9708F461C0109297
:10081000FC001092FB008091FA008F5F8093FA0039
:100820008C3308F455C01092FA00E9EAF1E0C7E809
:10083000D1E0A7E6B1E080E090E021E030E0408147
:1008400051814115510529F041505109518340838F
:1008500037C08830910550F46BB3A901082E01C050
:10086000440F0A94EAF764276BBB0CC065B3AC0174
:1008700048505109890102C0000F111F4A95E2F743
:10088000602765BB6091A7017091A801A901082E9E
:1008900002C0440F551F0A94E2F78A01062317236A
:1008A000012B19F00881198103C00D911C9111973A
:1008B00011830083462757275093A8014093A7012F
:1008C00001963296229612968031910509F0B7CFA3
:1008D000FF91EF91DF91CF91BF91AF919F918F9158
:1008E0007F916F915F914F913F912F911F910F9148
:1008F0000F900FBE0F901F9018951F920F920FB67A
:100900000F921124CF92DF92EF92FF920F931F93D9
:100910002F933F934F935F936F937F938F939F9307
:10092000AF93BF93EF93FF93CF93DF93CDB7DEB732
:10093000C456D109DEBFCDBFCE0101967C0100E0D7
:1009400010E00E946505F70181937F01833141F436
:10095000E1E0F0E0EC0FFD1FE00FF11F108207C097
:100960008A30B1F30F5F1F4F0436110551F78981AB
:100970008823E1F08EEE90E00E9469056E01F5E6B5
:10098000CF0ED11C8E010F5F1F4F7801F8018191AE
:100990008F010E946105F7018081882319F00C15F1
:1009A0001D0599F78AEA90E00E946905CE0101963B
:1009B0000E944F00CC59DF4F0FB6F894DEBF0FBE38
:1009C000CDBFDF91CF91FF91EF91BF91AF919F91FB
:1009D0008F917F916F915F914F913F912F911F91D7
:1009E0000F91FF90EF90DF90CF900F900FBE0F9080
:1009F0001F90189510BC87E689B988E98AB986E8FE
:100A000080BD089585E083BF12BE89B7816089BF2C
:100A1000089587E085BD14BC89B7806489BF0895B7
:100A20008FEF8ABB84BB1BBA15BAC0E0D0E08BB392
:100A300086958BBB1BB3CE010E94C00220E8829F2B
:100A4000C0011124812B8BBB2196C830D10579F7C9
:100A5000C8E0D0E085B3869585BB15B3CE010E9472
:100A6000C00220E8829FC0011124812B85BB219602
:100A7000C031D10579F78FEF91E0909366018093B3
:100A8000650180916501909166010E94C0028F3FCF
:100A900031F080916501909166010197EECF25B309
:100AA0008BB390E0922B9093A8018093A7010E94B2
:100AB000FA040E94C7020E9402050E940905789468
:100AC000FFCF5D9BFECF8CB908955F9BFECF8CB1AD
:100AD0000895CF93DF93EC018991882319F00E9448
:100AE0006105FACFDF91CF9108950F931F93CF93B4
:100AF000DF93E0912F02F0913002238121FF1BC090
:100B0000EC0100E010E0899160912F0270913002B9
:100B1000DB011896ED91FC911997882331F0099526
:100B2000892B89F30FEF1FEFEECF8AE00995892B10
:100B300011F4C80102C08FEF9FEFDF91CF911F9199
:100B40000F910895AEE0B0E0E8EAF5E00C94850B73
:100B50000D891E8986E08C831A8309838FEF9FE7B6
:100B60009E838D83AE01475E5F4F6F89788DCE0186
:100B700001960E94DD05EF81F885E00FF11F1082DC
:100B80002E96E4E00C94A10BAEE0B0E0EAECF5E0C8
:100B90000C94870B85E08C838B899C899A8389834D
:100BA000AE01495E5F4F6D897E89CE0101960E943C
:100BB0002D092E96E2E00C94A30BACE0B0E0E3EE3E
:100BC000F5E00C94770B7C016B018A01FC01178224
:100BD0001682838181FFBDC1CE0101964C01F701D0
:100BE0009381F60193FD859193FF81916F01882395
:100BF00009F4ABC1853239F493FD859193FF81915E
:100C00006F01853229F4B70190E00E94CB0AE7CF4B
:100C1000512C312C20E02032A0F48B3269F030F4DA
:100C2000803259F0833269F420612CC08D3239F062
:100C3000803339F4216026C02260246023C02860FC
:100C400021C027FD27C030ED380F3A3078F426FF59
:100C500006C0FAE05F9E300D1124532E13C08AE0C7
:100C6000389E300D1124332E20620CC08E3221F4B8
:100C700026FD6BC1206406C08C3611F4206802C0CA
:100C8000883641F4F60193FD859193FF81916F01C0
:100C90008111C1CF982F9F7D9554933028F40C5F1C
:100CA0001F4FFFE3F9830DC0833631F0833771F0B6
:100CB000833509F05BC022C0F801808189830E5F13
:100CC0001F4F44244394512C540115C03801F2E0C5
:100CD0006F0E711CF801A080B18026FF03C0652D46
:100CE00070E002C06FEF7FEFC5012C870E94820A7F
:100CF0002C0183012C852F77222E17C03801F2E0BA
:100D00006F0E711CF801A080B18026FF03C0652D15
:100D100070E002C06FEF7FEFC5012C870E94770A59
:100D20002C012C852068222E830123FC1BC0832DDF
:100D300090E048165906B0F4B70180E290E00E94B6
:100D4000CB0A3A94F4CFF50127FC859127FE8191D7
:100D50005F01B70190E00E94CB0A31103A94F1E0B4
:100D60004F1A51084114510471F7E5C0843611F04F
:100D7000893639F5F80127FF07C0608171818281CA
:100D800093810C5F1F4F08C060817181882777FDB8
:100D90008095982F0E5F1F4F2F76B22E97FF09C0B8
:100DA00090958095709561957F4F8F4F9F4F2068EC
:100DB000B22E2AE030E0A4010E94160BA82EA8183B
:100DC00044C0853729F42F7EB22E2AE030E025C0BA
:100DD000F22FF97FBF2E8F36C1F018F4883579F0E5
:100DE000B4C0803719F0883721F0AFC02F2F2061B1
:100DF000B22EB4FE0DC08B2D8460B82E09C024FF26
:100E00000AC09F2F9660B92E06C028E030E005C0CA
:100E100020E130E002C020E132E0F801B7FE07C077
:100E200060817181828193810C5F1F4F06C0608158
:100E3000718180E090E00E5F1F4FA4010E94160BAD
:100E4000A82EA818FB2DFF77BF2EB6FE0BC02B2DAA
:100E50002E7FA51450F4B4FE0AC0B2FC08C02B2D9E
:100E60002E7E05C07A2C2B2D03C07A2C01C0752C48
:100E700024FF0DC0FE01EA0DF11D8081803311F4C5
:100E8000297E09C022FF06C07394739404C0822F88
:100E9000867809F0739423FD13C020FF06C05A2CF6
:100EA000731418F4530C5718732C731468F4B701A7
:100EB00080E290E02C870E94CB0A73942C85F5CFBA
:100EC000731410F4371801C0312C24FF12C0B7017D
:100ED00080E390E02C870E94CB0A2C8522FF17C06C
:100EE00021FF03C088E590E002C088E790E0B701E9
:100EF0000CC0822F867859F021FD02C080E201C02B
:100F00008BE227FD8DE2B70190E00E94CB0AA51489
:100F100038F4B70180E390E00E94CB0A5A94F7CFEF
:100F2000AA94F401EA0DF11D8081B70190E00E94BE
:100F3000CB0AA110F5CF332009F451CEB70180E2DE
:100F400090E00E94CB0A3A94F6CFF7018681978110
:100F500002C08FEF9FEF2C96E2E10C94930B20FDE3
:100F600009C0FC0123FD05C022FF02C07383628318
:100F700051834083089544FD10C046FD10C0DB013D
:100F8000FC01AA0FBB1FEE1FFF1F1094D1F76A0FC1
:100F90007B1F8E1F9F1F31E003C033E001C034E090
:100FA000660F771F881F991F3150D1F7620F711D8F
:100FB000811D911D08950F931F93CF93DF938C0193
:100FC000C8010E948D0AEC0197FD08C00E94640AC6
:100FD000892BB1F7B801CE010E94FD0ACE01DF9145
:100FE000CF911F910F9108958F929F92AF92CF92C0
:100FF000DF92EF92FF920F931F93CF93DF93EC0159
:10100000A62E4A01022F0E948D0AAC0155274B32B1
:10101000510521F04D32510551F40068AA9411F4A4
:1010200080E067C0CE010E948D0A97FDF9CF102F96
:101030001D7F302F307301F58033F1F4FF24FA94D3
:10104000FA0C09F442C0CE010E948D0A97FD3DC002
:10105000382F3F7D383551F41264AA94AA94A9F12F
:10106000CE010E948D0A97FF07C02FC006FF02C065
:10107000126001C01261AF2CC12CD12C760120ED81
:10108000280F283080F014FF04C0BE010E94FD0A22
:1010900019C02A3040F016FFF8CF2F7D3FEE320FF7
:1010A000363098F72750412FC701B6010E94BB0781
:1010B0006B017C011260AA9459F0CE010E948D0A46
:1010C00097FFDDCF11FD04C0ABCFC12CD12C760131
:1010D00017FF08C0F094E094D094C094C11CD11CB8
:1010E000E11CF11C212FB701A601C4010E94AF072A
:1010F00081E0DF91CF911F910F91FF90EF90DF90F2
:10110000CF90AF909F908F900895A1E2B0E0EBE870
:10111000F8E00C947C0B5C017A018E010F5F1F4F8D
:10112000680180E2D8011D928A95E9F7F501738084
:1011300040E050E0812CB0E0912C81E090E0F9019A
:1011400073FCA59173FEA1918F017A2F9F01A111CC
:1011500003C080E090E07DC0AE3519F44115510523
:1011600059F1E92DF0E0E417F5073CF4AD3569F1EC
:10117000AD3219F4BB2319F103C0B11101C08A2E9D
:10118000E72FE695E695E69586010E0F111DF8010D
:10119000A72FA7708C0102C0000F111FAA95E2F7BC
:1011A000D801B081BA2BB083781559F0781510F4B6
:1011B0007F5FE6CF7150E4CF9924939403C0B1E0F0
:1011C00001C0B0E04F5F5F4FBACFBB2319F08E81F3
:1011D00080628E83911003C09924939415C0F60108
:1011E000CE018196208120952193E817F907D1F748
:1011F000F3CFE114F10429F0D7018C93F701319674
:101200007F01615001F1912CC50169A30E948D0AF3
:1012100069A197FD16C0282F269526952695F601DB
:10122000E20FF11D208130E0AC014770552702C06C
:10123000359527954A95E2F720FDDBCFB5010E9451
:10124000FD0A911086CFE114F10411F0D7011C9230
:10125000C801A196EDE00C94980B4F925F927F929B
:101260008F929F92AF92BF92CF92DF92EF92FF92B6
:101270000F931F93CF93DF931F92CDB7DEB78C01EF
:101280002B017A01FC0117821682A12CF801D38070
:10129000F201D3FC8591D3FE8191382F2F01882351
:1012A00009F4FCC090E039830E94640A3981892BDB
:1012B00021F0C8010E94DB07E9CF353241F4F20189
:1012C000D3FC3591D3FE31912F01353269F4C80139
:1012D00039830E948D0A398197FDDEC03817B1F23B
:1012E000B8010E94FD0ADAC03A3241F4D3FC3591CC
:1012F000D3FE31912F01BB24B39401C0B12C712CCA
:1013000020ED230F2A3090F4FB2DF260BF2E672DC5
:1013100070E080E090E040E20E94BB07762EF20190
:10132000D3FC3591D3FE31912F01EACFB1FE03C03A
:10133000711003C0B3C077247A94383619F03C3664
:1013400061F014C0F201D3FC3591D3FE31912F012D
:10135000383661F4FB2DF860BF2E8B2D8460B82EDB
:10136000F201D3FC3591D3FE31912F01332309F4DF
:1013700095C0632F70E084E590E039830E946C0A89
:101380003981892B09F48AC0B0FC07C0F701C080FD
:10139000D180C70102967C0102C0C12CD12C3E36FF
:1013A00051F4F8014681578160E070E02B2DC601B1
:1013B0000E94AF076BCF3336A1F4B1FC02C0772493
:1013C0007394C8010E948D0A97FD66C0C114D104B0
:1013D00029F0F6018083C60101966C017A9489F7A1
:1013E00057C03B3559F49201A601672DC8010E94F0
:1013F00085082C01009709F04BC045C0C80139830E
:101400000E94DB07398197FD47C03F3669F128F418
:10141000343631F1393679F12BC0333769F035374D
:10142000F9F026C0C114D10429F0F6018082C6016A
:1014300001966C017A9471F0C8010E948D0A4C01EA
:1014400097FD08C00E94640A892B61F3B801C401AA
:101450000E94FD0AC114D104D9F0F601108218C00F
:10146000FB2DF062BF2E07C08B2D8061B82E03C00C
:101470009B2D9064B92E2B2DA601672DC8010E94CB
:10148000F407811105C0F8018381807329F406C037
:10149000B0FCFCCEA394FACEAA2019F08A2D90E0DD
:1014A00002C08FEF9FEF0F90DF91CF911F910F91AF
:1014B000FF90EF90DF90CF90BF90AF909F908F9074
:1014C0007F905F904F90089591110EC1803219F076
:1014D00089508550D0F70895FC010590061621F03B
:1014E0000020D9F7C00108953197CF010895FC017C
:1014F0000590615070400110D8F7809590958E0F3F
:101500009F1F0895FC016150704001900110D8F7B1
:10151000809590958E0F9F1F0895CF93DF93EC01D8
:101520002B8120FF33C026FF0AC02F7B2B838E81A7
:101530009F8101969F838E838A8190E029C022FF3C
:101540000FC0E881F9818081992787FD90950097E8
:1015500019F420622B831AC03196F983E8830EC0F8
:10156000EA85FB85099597FF09C02B81019611F447
:1015700080E101C080E2822B8B8308C02E813F81F5
:101580002F5F3F4F3F832E83992702C08FEF9FEF3E
:10159000DF91CF9108950F931F93CF93DF93182F6F
:1015A000092FEB018B8181FD03C08FEF9FEF20C0DE
:1015B00082FF10C04E815F812C813D81421753070D
:1015C0007CF4E881F9819F012F5F3F4F39832883A5
:1015D000108306C0E885F985812F0995892B29F7A5
:1015E0002E813F812F5F3F4F3F832E83812F902F8E
:1015F000DF91CF911F910F910895FB01238120FF6F
:1016000012C026FD10C08F3F3FEF930761F0828329
:101610002F7D206423832681378121503109378330
:101620002683992708958FEF9FEF0895FA01AA273F
:10163000283051F1203181F1E8946F936E7F6E5F15
:101640007F4F8F4F9F4FAF4FB1E03ED0B4E03CD0C3
:10165000670F781F891F9A1FA11D680F791F8A1FA6
:10166000911DA11D6A0F711D811D911DA11D20D00D
:1016700009F468943F912AE0269F11243019305DC7
:101680003193DEF6CF010895462F4770405D4193B8
:10169000B3E00FD0C9F7F6CF462F4F70405D4A3305
:1016A00018F0495D31FD4052419302D0A9F7EACFCD
:1016B000B4E0A6959795879577956795BA95C9F7FC
:1016C00000976105710508959B01AC010A2E0694EF
:1016D0005795479537952795BA95C9F7620F731FA8
:1016E000841F951FA01D08959927882708952F927C
:1016F0003F924F925F926F927F928F929F92AF92A2
:10170000BF92CF92DF92EF92FF920F931F93CF93EE
:10171000DF93CDB7DEB7CA1BDB0B0FB6F894DEBF85
:101720000FBECDBF09942A88398848885F846E84AB
:101730007D848C849B84AA84B984C884DF80EE80F5
:10174000FD800C811B81AA81B981CE0FD11D0FB6FE
:10175000F894DEBF0FBECDBFED010895F894FFCF22
:10176000FF015541256336353533352F300055415E
:101770002563302F363535333500554325633635EF
:101780003533352F300055432563302F363535330B
:10179000350025642E25780A0054256425730057EA
:1017A000726F6E6720636F6465210A00552563259B
:1017B0006325642F25640057726F6E6720706F7207
:1017C0007400556E7265636F676E6973656420633C
:1017D0006F64653A25730A004175746F2072756EE7
:1017E0006E696E6720636F6D6D616E643A000A52B8
:0A17F000656365697665643A0A00D6
:00000001FF
